:100000000C94B1000C942C060C9405060C94D900A9
:100010000C94D9000C94D9000C94D9000C94D900FC
:100020000C94D9000C94D9000C94D9000C94D900EC
:100030000C94D9000C94D9000C94D9000C94D900DC
:100040000C94BB050C94D9000C9489050C946305A1
:100050000C94D9000C94D9000C94D9000C94D900BC
:100060000C94D9000C94D900000000002400270053
:100070002A0000000000250028002B0000000000DE
:1000800023002600290004040404040404040202DA
:100090000202020203030303030301020408102007
:1000A0004080010204081020010204081020000012
:1000B0000008000201000003040700000000000027
:1000C000000053544154455F574149540053544133
:1000D00054455F53544152540053544154455F5763
:1000E0004149540053544154455F50524553534580
:1000F000443A20005E01011F01030301008A02014E
:100100000A010202010064001E47040B0906007C7C
:100110000101060103030100F401060E01020201C0
:1001200000C201170101020201019600023E010610
:10013000060100C80003820710031000C8008207F0
:1001400010071003016D01120103010103010E01EB
:100150002401010202010140012401010202010106
:10016000530611241FBECFEFD8E0DEBFCDBF11E094
:10017000A0E0B1E0ECE0F3E102C005900D92A43202
:10018000B107D9F722E0A4E2B1E001C01D92AA397B
:10019000B207E1F710E0C1EBD0E004C02197FE0107
:1001A0000E947E09C03BD107C9F70E94CC060C947F
:1001B00084090C9400000895AF92BF92CF92DF9211
:1001C000EF92FF920F931F93CF93DF936C017B010C
:1001D0008B01040F151FEB015E01AE18BF08C0179D
:1001E000D10759F06991D601ED91FC910190F08110
:1001F000E02DC6010995892B79F7C501DF91CF91D3
:100200001F910F91FF90EF90DF90CF90BF90AF9034
:100210000895FC01538D448D252F30E0842F90E00C
:10022000821B930B541710F0CF96089501970895F1
:10023000FC01918D828D981761F0A28DAE0FBF2FBA
:10024000B11D5D968C91928D9F5F9F73928F90E010
:1002500008958FEF9FEF0895FC01918D828D98177F
:1002600031F0828DE80FF11D858D90E008958FEFBC
:100270009FEF0895FC01918D228D892F90E0805C85
:100280009F4F821B91098F739927089584EC91E009
:100290000E943A0121E0892B09F420E0822F089581
:1002A00080E090E0892B29F00E94460181110C9496
:1002B00000000895FC01A48DA80FB92FB11DA35A09
:1002C000BF4F2C91848D90E001968F739927848F76
:1002D000A689B7892C93A089B1898C918370806499
:1002E0008C93938D848D981306C00288F389E02D3A
:1002F00080818F7D80830895EF92FF920F931F93EB
:10030000CF93DF93EC0181E0888F9B8D8C8D9813C8
:100310001AC0E889F989808185FF15C09FB7F894D4
:10032000EE89FF896083E889F98980818370806420
:1003300080839FBF81E090E0DF91CF911F910F916B
:10034000FF90EF900895F62E0B8D10E00F5F1F4F7A
:100350000F731127E02E8C8D8E110CC00FB607FC89
:10036000FACFE889F989808185FFF5CFCE010E9417
:100370005A01F1CFEB8DEC0FFD2FF11DE35AFF4F2A
:10038000F0829FB7F8940B8FEA89FB8980818062A5
:10039000CFCF0F931F93CF93DF938C01D0E0C0E0BA
:1003A000F801EC0FFD1F6491662341F084EC91E0AD
:1003B0000E947C01892B11F02196F2CFCE01DF91B2
:1003C000CF911F910F910895CF93DF93EC01888D0A
:1003D0008823B9F0AA89BB89E889F9898C9185FDC0
:1003E00003C0808186FD0DC00FB607FCF7CF8C914E
:1003F00085FFF2CF808185FFEDCFCE010E945A01AB
:10040000E9CFDF91CF910895833081F028F48130D6
:1004100099F08230A9F008958730A9F08830C9F0AA
:100420008430B1F4809180008F7D03C08091800082
:100430008F7780938000089584B58F7784BD089569
:1004400084B58F7DFBCF8091B0008F778093B00013
:1004500008958091B0008F7DF9CF1F93CF93DF93E4
:10046000282F30E0F901E255FF4F8491F901E6565B
:10047000FF4FD491F901EA57FF4FC491CC23A9F063
:10048000162F81110E940402EC2FF0E0EE0FFF1FE7
:10049000EE58FF4FA591B4918FB7F894EC911111DC
:1004A00008C0D095DE23DC938FBFDF91CF911F91E1
:1004B0000895DE2BF8CF1F93CF93DF93182FD92FFA
:1004C0008091990260E0C1E0811102C061E0C0E06A
:1004D00080918D020E942D02209191023091920212
:1004E000129FC001139F900D11248230910538F0A6
:1004F000880F991F880F991F05970197F1F76C2FA7
:1005000080918D020E942D022091910230919202E1
:10051000D29FC001D39F900D11248230910538F0F5
:10052000880F991F880F991F05970197F1F7DF91A1
:10053000CF911F9108956F927F928F929F92AF9269
:10054000BF92CF92DF92EF92FF920F931F93CF93C0
:10055000DF936B017C01C0918B02D0918C02CF3F65
:10056000DC07B1F0C23070F4FE01FF27C13009F49E
:1005700043C0E898EE0FFF1FEE5FFE4F8BED90E05B
:10058000918380838FEF9FEF90938C0280938B02F7
:10059000712C612C812C912C5401839480918F02B9
:1005A000909190026816790674F507E110E0D50184
:1005B000C401002E04C0880F991FAA1FBB1F0A94F4
:1005C000D2F78C219D21AE21BF21892B8A2B8B2B29
:1005D000A9F080919702909198020E945B020150CD
:1005E000110928F780919302909194020E945B0276
:1005F0008FEF681A780AD2CFE998BCCF8091950224
:1006000090919602EACF60E080918D020E942D02C7
:10061000CF3FDC0729F1D0938C02C0938B0210925C
:1006200061021092620210926302109264021092B0
:10063000C3011092C2018C2FC23090F4DD27CC0F81
:10064000DD1FCE5FDE4F22EC33E03983288381301B
:10065000B1F0809169008C7F816080936900E89A95
:10066000DF91CF911F910F91FF90EF90DF90CF908E
:10067000BF90AF909F908F907F906F9008958091E2
:100680006900837F846080936900E99AE9CFCF9302
:10069000DF9390E0FC01E656FF4F24918A579F4F6D
:1006A000FC0184918823D1F090E0880F991FFC0110
:1006B000E859FF4FA591B491FC01EE58FF4FC59149
:1006C000D491623071F49FB7F8943C91822F809559
:1006D00083238C93E8812E2B28839FBFDF91CF91BA
:1006E00008958FB7F894EC912E2B2C938FBFF6CFF3
:1006F000FC018289882311F080E008952FB7F894D7
:100700008091BB019091BC01A091BD01B091BE014F
:100710002FBF4081518162817381841B950BA60B91
:10072000B70B80879187A287B38744815581668103
:10073000778184179507A607B707F0F2408751879E
:100740006287738781E00895FC0110821182128212
:1007500013821486158616861786108A118A128AC5
:100760002FB7F8948091BB019091BC01A091BD017D
:10077000B091BE012FBF80839183A283B38381E0B8
:10078000808B08952F923F924F925F926F927F924B
:100790008F929F92AF92BF92CF92DF92EF92FF9291
:1007A0000F931F93CF93DF93CDB7DEB765970FB647
:1007B000F894DEBF0FBECDBF9FB7F8948090B6010E
:1007C0009090B701A090B801B090B90186B5A89BF0
:1007D00007C08F3F29F02FEF821A920AA20AB20AAD
:1007E0009FBFBA2CA92C982C8824880E911CA11C80
:1007F000B11C82E0880C991CAA1CBB1C8A95D1F7FD
:100800008091B2019091B3012401481A590A4DEC2C
:10081000441640E1540608F4E0C08091B001909184
:10082000B101009789F020912A0130912B01D2016A
:10083000A21BB30B9D01B7FF03C031952195310970
:10084000283C31050CF0C5C001969093B10180930E
:10085000B001029709F0BDC014EF612E10E0712EB7
:1008600001E010E020902801309029013B862A8683
:1008700049E050E0B301CE0101960E940A098B8144
:100880006C81681708F4682F70E080912A019091BC
:100890002B010E9463099B014091060150910701C1
:1008A000649FC001659F900D749F900D112464E6B4
:1008B00070E00E946309898541E050E0882311F0CF
:1008C00042E050E08D81829FD001839FB00D1124C2
:1008D000BD87AC878E81829FF001839FF00D11242C
:1008E000FF87EE878F81829F1001839F300C112438
:1008F000398A288A8885829FD001839FB00D112470
:10090000BB8BAA8BFA01EE0FFF1FE65DFE4FC12CD9
:10091000D12C76018A859B8501979D8B8C8BAC8928
:10092000BD894A175B0708F041C0CC0CDD1CEE1CEA
:10093000FF1C80819181DC012C843D84A219B309C4
:10094000B7FF03C0B195A195B109A617B70770F419
:10095000A281B3812E843F84A219B309B7FF03C0DB
:10096000B195A195B109A617B707E0F0A889B98993
:100970008A1B9B0B97FF03C0919581959109861760
:100980009707D0F4828193812A883B888219930942
:1009900097FF03C09195819591098617970760F499
:1009A0006894C0F84E5F5F4F3496B9CF4A855B8537
:1009B0004830510508F053C00F5F1F4F59E0650ED6
:1009C000711C0D30110509F04DCF1092B10110923C
:1009D000B001109229011092280180912801909174
:1009E00029018334910540F01092290110922801C9
:1009F0001092B1011092B0018091280190912901CB
:100A00009C012F5F3F4F3093290120932801880FCD
:100A1000991FFC01E65DFE4F518240828092B20137
:100A20009092B301A092B401B092B50165960FB651
:100A3000F894DEBF0FBECDBFDF91CF911F910F9114
:100A4000FF90EF90DF90CF90BF90AF909F908F90EE
:100A50007F906F905F904F903F902F900895C0923D
:100A60006102D0926202E0926302F09264022C88EA
:100A70003D88369427943092C3012092C20130936E
:100A800027012093260110932501009324019DCF77
:100A9000FC0101900020E9F73197AF01481B590B89
:100AA000BC0184EC91E00C94DC00CF93DF930E94B6
:100AB000C901EC018AE191E00E9448058C0F9D1F5D
:100AC000DF91CF9108951F920F920FB60F921124CC
:100AD0002F933F934F935F936F937F938F939F9346
:100AE000AF93BF93EF93FF9384EC91E00E945A0180
:100AF000FF91EF91BF91AF919F918F917F916F91F6
:100B00005F914F913F912F910F900FBE0F901F90CB
:100B100018951F920F920FB60F9211242F938F9357
:100B20009F93EF93FF93E091D401F091D5018081E1
:100B3000E091DA01F091DB0182FD1BC09081809190
:100B4000DD018F5F8F732091DE01821741F0E0910C
:100B5000DD01F0E0EC53FE4F958F8093DD01FF91B6
:100B6000EF919F918F912F910F900FBE0F901F903B
:100B700018958081F4CF1F920F920FB60F92112417
:100B80002F933F938F939F93AF93BF938091BB011C
:100B90009091BC01A091BD01B091BE013091BA010C
:100BA00023E0230F2D3758F50196A11DB11D209389
:100BB000BA018093BB019093BC01A093BD01B09397
:100BC000BE018091B6019091B701A091B801B0919A
:100BD000B9010196A11DB11D8093B6019093B70193
:100BE000A093B801B093B901BF91AF919F918F913C
:100BF0003F912F910F900FBE0F901F90189526E8F0
:100C0000230F0296A11DB11DD2CF1F920F920FB6D6
:100C10000F9211242F933F934F935F936F937F9382
:100C20008F939F93AF93BF93EF93FF93E091040152
:100C3000F09105010995FF91EF91BF91AF919F91BF
:100C40008F917F916F915F914F913F912F910F9075
:100C50000FBE0F901F9018951F920F920FB60F9214
:100C600011242F933F934F935F936F937F938F93B1
:100C70009F93AF93BF93EF93FF93E0910201F091A5
:100C800003010995FF91EF91BF91AF919F918F91D2
:100C90007F916F915F914F913F912F910F900FBE78
:100CA0000F901F9018950F931F93CF93DF93E4EC51
:100CB000F1E01382128288EE93E0A0E0B0E084833A
:100CC0009583A683B7838CE091E09183808385EC44
:100CD00090E09587848784EC90E09787868780EC06
:100CE00090E0918B808B81EC90E0938B828B82ECF7
:100CF00090E0958B848B86EC90E0978B868B118EA1
:100D0000128E138E148ECBE8D2E00FEF1FEF1B83F1
:100D10000A838AE090E09D838C8349E050E064EF91
:100D200070E081E992E00E940A09198308838CE34C
:100D300090E0909307018093060110926102109257
:100D400062021092630210926402E8E7F2E01482F9
:100D500015821682178210821182128213821486E3
:100D6000158616861786108A118A128AE5E6F2E041
:100D700014821582168217821082118212821382C7
:100D80001486158616861786108A118A128ADF91B4
:100D9000CF911F910F910895CF93DF93CDB7DEB719
:100DA000A1970FB6F894DEBF0FBECDBF789484B57F
:100DB000826084BD84B5816084BD85B5826085BD57
:100DC00085B5816085BD80916E00816080936E00E5
:100DD00010928100809181008260809381008091D7
:100DE0008100816080938100809180008160809388
:100DF00080008091B10084608093B1008091B00048
:100E000081608093B00080917A00846080937A0042
:100E100080917A00826080937A0080917A0081606C
:100E200080937A0080917A00806880937A00109293
:100E3000C10062E08AE00E94470361E08DE00E9409
:100E40004703E091D401F091D50182E08083E091E5
:100E5000D001F091D1011082E091D201F091D30143
:100E60008FEC80831092DC01E091D801F091D901E0
:100E700086E08083E091D601F091D7018081806186
:100E80008083E091D601F091D701808188608083D2
:100E9000E091D601F091D701808180688083E09154
:100EA000D601F091D70180818F7D80838BE090E027
:100EB00090938E0280938D0261E00E94470349E087
:100EC00050E064EF70E081E992E00E940A098BE350
:100ED00091E090939202809391028AE090E0909347
:100EE000900280938F0288EE93E0A0E0B0E08093C0
:100EF0007C0290937D02A0937E02B0937F021092B9
:100F000078021092790210927A0210927B0210926B
:100F1000840210928502109286021092870210922B
:100F200088021092890210928A0280E197E2A0E082
:100F3000B0E08093690290936A02A0936B02B09331
:100F40006C02109265021092660210926702109273
:100F50006802109271021092720210927302109243
:100F600074021092750210927602109277022AE0B3
:100F7000422E512C612C712C32E0832E912C00E4F6
:100F800011E090E0292E90E0392E00937C008091B2
:100F90007A00806480937A0080917A0086FDFCCF8D
:100FA000A0917800B091790020E137E20E947709A2
:100FB0002FEF33E040E050E00E9413096901330F46
:100FC000EE08FF08C0926902D0926A02E0926B02BA
:100FD000F0926C02E8EBF0E08491E4EAF0E0A49097
:100FE000E0E9F0E0B490BB2009F4AAC081110E94AE
:100FF0000402EB2DF0E0EE0FFF1FE458FF4FA59128
:10100000B4918C91A82209F49BC01092C10160E0B8
:101010008DE00E942D0280910001909101018230AB
:10102000910509F4ADC08330910509F4BCC0019766
:10103000C9F58091C1018823A9F11093C0011093D3
:10104000BF01909201018092000184EE90E00E9425
:10105000C901F7FE79C06DE284EC91E00E947C0149
:1010600022273327A9012C193D094E095F0919A22E
:10107000CE0181967C01CA01B901A30192010E94AF
:101080003209605DF70162937F0121153105410549
:10109000510589F7CF01EF2B09F06FC08AE191E08C
:1010A0000E94480580918802811115C02FB7F894DD
:1010B0008091BB019091BC01A091BD01B091BE0196
:1010C0002FBF8093780290937902A0937A02B09315
:1010D0007B021093880288E792E00E9478038111D6
:1010E00004C08091BF018823F9F088E792E00E9454
:1010F000A4031092BF018091C001882309F476C037
:101100008DE191E00E9448058AE191E00E94480546
:1011100080918D0290918E02019631F06FE674EE0F
:1011200088E190E00E949B022114310409F42DCF44
:101130000E944601882309F422CF0E9400001FCF9D
:101140001093C10161E064CF19A2CE0181965C01C8
:10115000C701B601A30192010E94320969017A0117
:10116000605DF50162935F01C114D104E104F104F3
:1011700079F7309709F492CFCF010E9448058ECFBE
:101180008091C10181118ECF83E090E090930101A5
:101190008093000185E692E00E94A40389ED90E02F
:1011A0000E9455057FCF85E692E00E947803882350
:1011B00069F0E1E0F0E0F0930101E09300011092AA
:1011C000C0011093BF018DEC90E0EACF8091C10186
:1011D000882309F467CF909201018092000185E68F
:1011E00092E00E94A40382EC90E0DACF80E291E0EA
:1011F0000E9448058AE191E00E94480580918D0295
:1012000090918E02019609F48FCF6EE674EE88E11C
:1012100090E088CFFB01DC0102C005900D924150A7
:101220005040D8F70895052E97FB1EF400940E94B5
:101230002A0957FD07D00E94320907FC03D04EF45B
:101240000C942A0950954095309521953F4F4F4F6A
:101250005F4F089590958095709561957F4F8F4F62
:101260009F4F0895A1E21A2EAA1BBB1BFD010DC0C2
:10127000AA1FBB1FEE1FFF1FA217B307E407F50746
:1012800020F0A21BB30BE40BF50B661F771F881F22
:10129000991F1A9469F760957095809590959B01B8
:1012A000AC01BD01CF010895A29FB001B39FC00161
:1012B000A39F700D811D1124911DB29F700D811D82
:1012C0001124911D0895AA1BBB1B51E107C0AA1F41
:1012D000BB1FA617B70710F0A61BB70B881F991FD7
:1012E0005A95A9F780959095BC01CD0108950E946B
:1012F0005409B7FF0895821B930B0895EE0FFF1F4B
:0C1300000590F491E02D0994F894FFCFC3
:10130C000100DB00DB003C00000000007C01DC0085
:10131C000901E4013A0118012C010D0A004F6E007D
:04132C004F666600A2
:00000001FF
