:100000000C943E030C94C1300C94EE300C946603B7
:100010000C9466030C9466030C9466030C946603BC
:100020000C9466030C9466030C9466030C946603AC
:100030000C9466030C9466030C9466030C9466039C
:100040000C9497310C9466030C9466030C9466032D
:100050000C9466030C9466030C9466030C9466037C
:100060000C9466030C946603200A230A260A290AC4
:100070002C0A2F0A320A350A380A3B0A3E0A410A7C
:10008000440A470A4A0A4D0A490D6E0D9F0DDD0DBF
:10009000290E6C0EAF0EF20E3E0F810FC40F07102B
:1000A00053109610D9101C116811AB11EE113112BA
:1000B0007312B112F41234137213BD13FB133914FB
:1000C0007714B914F71435157315B115EF154216D9
:1000D0008316CE160D173F1771179B170318641858
:1000E000C618F1181B194E198319BC19F5192E1AC7
:1000F000671A9E1AD71A0E1B2C1C371C701CA71CC3
:10010000D71C071D3C1D771DA71DD91D141E351EAC
:10011000701EAB1EE61E341F4261744C6F773A00AE
:1001200054756E65204C6F6F6B204261636B3A00B3
:1001300054756E65204E6F6973653A0054756E652F
:1001400020537465703A004B643A004B693A004B97
:10015000703A0044656C74613A0053616D706C656F
:10016000205A6569743A0050574D204C61656E679E
:10017000653A005049443A00576965646572686F92
:100180006C756E673A00506572696F64653A00502D
:100190006572696F64653A00556E69743A004F661E
:1001A0006620436F64653A00416472657373653A13
:1001B000004F6E20436F64653A00536368616C744E
:1001C0006572205479703A006B616C20543A006B70
:1001D000616C206D3A00576869726C706F6F6C20AB
:1001E000643A004B6F6368656E206D61783A004B2E
:1001F0006F6368656E206D696E3A004B6F6368656A
:100200006E20543A004E6163686B6F6368656E20C0
:10021000643A0041726F6D61686F7066656E20644C
:100220003A00426974746572686F7066656E206426
:100230003A004C61657574657272756865206D6110
:10024000783A004C61657574657272756865206DE9
:10025000696E3A004C6165757465727275686520E7
:10026000543A004C616575746572727568652064F6
:100270003A0041626D6169736368656E206D6178F3
:100280003A0041626D6169736368656E206D696EE5
:100290003A0041626D6169736368656E20543A008B
:1002A00041626D6169736368656E20643A004A6FEC
:1002B0006470726F626520643A005A75636B657290
:1002C00072617374206D61783A005A75636B657260
:1002D00072617374206D696E3A005A75636B657252
:1002E0007261737420543A005A75636B657272615F
:1002F000737420643A004D616C746F73657261733E
:1003000074206D61783A004D616C746F7365726131
:100310007374206D696E3A004D616C746F73657211
:1003200061737420543A004D616C746F736572612F
:10033000737420643A0045697765697372617374F8
:10034000206D61783A0045697765697372617374ED
:10035000206D696E3A0045697765697372617374DF
:1003600020543A004569776569737261737420643B
:100370003A00466572756C6172617374206D6178C4
:100380003A00466572756C6172617374206D696EB6
:100390003A00466572756C617261737420543A005C
:1003A000466572756C617261737420643A004569C8
:1003B0006E6D6169736368656E206D61783A0045A2
:1003C000696E6D6169736368656E206D696E3A0070
:1003D00045696E6D6169736368656E20543A0045C6
:1003E000696E6D6169736368656E20643A202000F0
:1003F0004272617572657A6570743A2020005461AA
:1004000073746520532064727565636B656E00209C
:1004100020202020202020202000202020202020FC
:1004200020202020004175746F2054756E652020B7
:100430002000576869726C706F6F6C202020004E2E
:100440006163686B6F6368656E20200041726F6D39
:1004500061686F7066656E200042697474657268C9
:100460006F7066656E004C6165757465726E2020F4
:100470002020004C61657574657272756865200096
:1004800041626D6169736368656E2020004A6F6424
:1004900070726F626520202020005A75636B657250
:1004A000726173742020004D616C746F73657261AA
:1004B00073742000456977656973726173742020D5
:1004C00000466572756C6172617374202000456925
:1004D0006E6D6169736368656E200041756668655D
:1004E000697A656E20202000536574757020202085
:1004F00020202020002020006D696B726F53696BF3
:100500006172752E646500526573747A6569743A18
:10051000202020202020002053002049004F3A00B6
:10052000005EBCE2613FDD83C29C7E20A3FD1F41D3
:100530009DC3217FFCA2401E5F01E3BD3E6082DCC3
:10054000237D9FC1421CFEA0E1BF5D0380DE3C62B3
:10055000BEE0025CDF81633D7C22C09E1D43A1FFA3
:100560004618FAA427799BC584DA3866E5BB590793
:10057000DB856739BAE406581947A5FB7826C49A83
:10058000653BD987045AB8E6A7F91B45C6987A2473
:10059000F8A6441A99C7257B3A6486D85B05E7B963
:1005A0008CD2306EEDB3510F4E10F2AC2F7193CD53
:1005B000114FADF3702ECC92D38D6F31B2EC0E5043
:1005C000AFF1134DCE90722C6D33D18F0C52B0EE33
:1005D000326C8ED0530DEFB1F0AE4C1291CF2D7323
:1005E000CA947628ABF517490856B4EA6937D58B13
:1005F0005709EBB536688AD495CB2977F4AA481603
:10060000E9B7550B88D6346A2B7597C94A14F6A8F2
:10061000742AC896154BA9F7B6E80A54D7896B35E2
:1006200000000008000201000003040700000000B1
:1006300000000000010204081020408001020408AC
:10064000102001020408102004040404040404041B
:10065000020202020202030303030303000000007C
:1006600023002600290000000000250028002B00A0
:1006700000000000240027002A00AF2011241FBE24
:10068000CFEFD8E0DEBFCDBF13E0A0E0B1E0E0E106
:10069000F6E702C005900D92A439B107D9F726E01C
:1006A000A4E9B3E001C01D92AF39B207E1F716E04B
:1006B000CCE7D6E004C02297FE010E948A38CA37F0
:1006C000D107C9F70E9440330C94063B0C940000FC
:1006D000CF93DF93809169030E941633EC018091E0
:1006E00067030E941633C817D90731F480913E067C
:1006F00090913F06019705C080913E0690913F067C
:10070000019690933F0680933E06DF91CF91089526
:100710000C94B93A0C94C13A61E080915F030C9457
:10072000E032CF93DF93EC018889811108C00E94E9
:10073000E131688379838A839B8381E0888BDF91B1
:10074000CF9108950F931F93CF93DF93EC010E94F5
:10075000E131088119812A813B81601B710B820B79
:10076000930B688779878A879B870C811D812E81EF
:100770003F81601771078207930730F00887198758
:100780002A873B8781E001C080E0DF91CF911F91F4
:100790000F9108952F923F924F925F926F927F92A6
:1007A0008F929F92AF92BF92CF92DF92EF92FF9281
:1007B0000F931F93CF93DF93982EE9016F707727E4
:1007C0001CE0C12CD12C7601E3E04E2E512C612C83
:1007D000712C32E0CC0CDD1CEE1CFF1C3A95D1F7DD
:1007E000CB01BA01A30192010E946638FA01C62A20
:1007F000D72AE82AF92AA901BF01115051F7077039
:1008000081E0282E01C0220C0A95EAF78E01000F24
:10081000111F0C0F1D1F8FE18C9F50018D9FB00C7D
:100820001124312C260137018CE0882ED301C2011E
:1008300083709927AA27BB2781309105A105B105AF
:1008400071F190F00297A105B10509F044C061E093
:10085000892D0E94E032CE010E94383260E0892D5D
:100860000E94E032C80127C061E0892D0E94E03279
:10087000CE010E94383260E0892D0E94E032C8012A
:100880000E94383261E0892D0E94E032CE010E9440
:10089000383260E0892D0E94E032C8011AC061E060
:1008A000892D0E94E032C8010E94383260E0892D13
:1008B0000E94E032CE010E94383261E0892D0E9410
:1008C000E032C8010E94383260E0892D0E94E03297
:1008D000CE010E94383292E0769467945794479400
:1008E0009A95D1F78A9409F0A1CF61E0892D0E94F1
:1008F000E032CE010E94383260E0892D0E94E03261
:10090000C5010E9438323394321408F48BCFDF9142
:10091000CF911F910F91FF90EF90DF90CF90BF90FC
:10092000AF909F908F907F906F905F904F903F908F
:100930002F9008951F93CF93DF93182FEB0161E061
:100940004423F9F00E94E032CE010E94383260E088
:10095000812F0E94E03285E0282F2C9FC0012D9F1F
:10096000900D11240E94383261E0812F0E94E03204
:10097000CE010E94383260E0812F0E94E032CE0129
:100980001EC00E94E032CE010E94383260E0812F0A
:100990000E94E032CE010E94383261E0812F0E9435
:1009A000E032CE010E94383260E0812F0E94E032B6
:1009B00085E0282F2C9FC0012D9F900D1124DF91E1
:1009C000CF911F910C9438322F923F924F925F92A9
:1009D0006F927F928F929F92AF92BF92CF92DF924F
:1009E000EF92FF920F931F93CF93DF93F82ED92EA0
:1009F0004A015B01E9014E2CE02E3901769467949F
:100A00002AE02C9FC0012D9F900D1124680E791EA5
:100A100088E28C9F10018D9F300C1124512CE7FC33
:100A200051C061E08F2D0E94E032CE010E94383229
:100A300060E08F2D0E94E032C3010E94383209E14C
:100A400010E0B501A401002E04C076956795579576
:100A500047950A94D2F74170BE018F2D9D2D0E94BB
:100A60009A040150110968F740E0BE018F2D9D2DB9
:100A70000E949A044C2DBE018F2D9D2D0E949A0438
:100A800003E010E0A201002E02C0559547950A949C
:100A9000E2F74170BE018F2D9D2D0E949A040150F6
:100AA000110980F761E08F2D0E94E032CE010E9493
:100AB000383260E08F2D0E94E032C1010E9438324E
:100AC000EA94ADCFDF91CF911F910F91FF90EF90FE
:100AD000DF90CF90BF90AF909F908F907F906F905E
:100AE0005F904F903F902F900895CF92EF920F9389
:100AF000C82E2091420380916503909166032111D5
:100B00001CC000914B0320914C0330914D03CC202D
:100B100049F0409143035091440360914503709123
:100B2000460308C040914703509148036091490330
:100B300070914A030E94CA0312C02091520330915F
:100B4000530340914E0350914F03609150037091B5
:100B50005103E090540300914B030E94E4040F9171
:100B6000EF90CF900895882319F064EB70E002C0F5
:100B700060E070E0809161030C94383180915D03F6
:100B80000E941B31BC01882777FD8095982F0E9419
:100B90004B3726E636E646E95BE30E94FF370895C9
:100BA0000E94BE0520915503309156034091570392
:100BB000509158030E94AC3687FF04C081E08093B7
:100BC000420608951092420608950F931F93CF9303
:100BD000DF9300E010E080918C060E941B31EC0155
:100BE00080915B030E941B31CC33D1059CF0CC97E4
:100BF0008CF0C83CD1058CF0C03981E0D80784F076
:100C0000C83582E0D8077CF0C032D3407CF4C5E020
:100C1000D0E00EC0C1E0D0E00BC0C2E0D0E008C020
:100C2000C3E0D0E005C0C4E0D0E002C0C0E0D0E046
:100C30006AE070E080E090E00E941032C017D107B7
:100C400011F08E01C8CFCE01DF91CF911F910F918E
:100C5000089580914906811110C00E94E505019711
:100C600061F480E190E090933B0680933A0668EC53
:100C700070E080E090E00C94103208950E94E50549
:100C8000059779F080913E0690913F0620913C06B1
:100C900030913D06821B930B1816190614F080E064
:100CA000089580913E0690913F0690933D06809373
:100CB0003C0664E670E080E090E00E94103281E043
:100CC00008950E94E505049771F080913E06909189
:100CD0003F0620913C0630913D06821B930B97FD09
:100CE00002C080E0089580913E0690913F06909367
:100CF0003D0680933C0664E670E080E090E00E9450
:100D0000103281E008950E943E06882371F08091A0
:100D1000360690913706019680319105A4F0109225
:100D200037061092360681E008950E9461068823F6
:100D300079F08091360690913706009719F48FE08C
:100D400090E001C001979093370680933606EBCF71
:100D500080E0089583E596E00E945D254091590367
:100D60006BE476E083E596E00E94E72460E083E5AB
:100D700096E00E94C52583E596E00C943226CF923A
:100D8000DF92EF92FF9260E083E596E00E942627D3
:100D90006B017C0183E596E00E94322620911C03C2
:100DA00030911D0340911E0350911F03C701B601EE
:100DB0000E94FF37209120033091210340912203AC
:100DC000509123030E944836FF90EF90DF90CF9020
:100DD000089581110C948C0360E080915F030C9462
:100DE000E03280914606882359F0809142068111B5
:100DF00007C081E00E94750581E080934506089553
:100E000080E00E947505109245060895909146066F
:100E1000981719F091E0909344060895EF92FF928D
:100E20000F931F93E0914506EE23A1F0A8019701CF
:100E30000E9448369B01AC0160912E0670912F06EE
:100E400080913006909131060E94FB37181694F479
:100E500080E011C00E9448369B01AC0160912E06D3
:100E600070912F0680913006909131060E94AC3629
:100E700087FFEECF81E00E940607809346061F9110
:100E80000F91FF90EF900895CF92DF92EF92FF9233
:100E90000F931F9360912603709127038FE895E0CD
:100EA0000E94CE2AC0903403D0903503E0903603E0
:100EB000F0903703009130031091310320913203F9
:100EC0003091330340912C0350912D0360912E03F8
:100ED00070912F038FE895E00E941B2A60912403F4
:100EE0007091250380E090E00E9449378B019C01BE
:100EF00040E050E0BA018FE895E00E941C2B61E0D1
:100F000070E08FE895E01F910F91FF90EF90DF90D8
:100F1000CF900C94E22BCF92DF92EF92FF92C09091
:100F20002E06D0902F06E0903006F0903106C09249
:100F30002606D0922706E0922806F09229066093B2
:100F40002A0670932B0680932C0690932D060E9400
:100F5000E1316B017C018091320690913306A091C2
:100F60003406B0913506C81AD90AEA0AFB0A8091FC
:100F700040068823D9F041E060E084E796E00E94D3
:100F8000FA276DE175E084E796E00E948D33409189
:100F9000220650912306609124067091250622E0D6
:100FA00030E084E796E00E946C3533C0209126063D
:100FB00030912706409128065091290660912A0613
:100FC00070912B0680912C0690912D060E94473639
:100FD000209128033091290340912A0350912B033B
:100FE0000E94AC3687FF05C08FE895E00E94FB2881
:100FF00010C0609124037091250380E090E00E946E
:1010000049376093220670932306809324069093B9
:101010002506409124035091250360E070E04C15B3
:101020005D056E057F05B8F4809132069091330618
:10103000A0913406B0913506840F951FA61FB71FE7
:101040008093320690933306A0933406B09335060E
:10105000C12CD12C7601C701B6010E9449379B01F2
:10106000AC01609122067091230680912406909134
:1010700025060E94FB3787FD02C081E001C080E0A9
:101080000E94060780934606FF90EF90DF90CF9076
:10109000089520E042E060E184E796E00C94142893
:1010A000CF92DF92EF92FF926B017C01809142061A
:1010B00040E060E0882371F084E796E00E94FA2720
:1010C0006CE673E084E796E0FF90EF90DF90CF90BE
:1010D0000C94C03384E796E00E94FA2760913A06A8
:1010E00070913B064AE050E084E796E00E946C3441
:1010F0006AE175E084E796E00E948D3340912E0608
:1011000050912F06609130067091310622E030E058
:1011100084E796E00E946C3567E175E084E796E02D
:101120000E948D3322E030E0B701A60184E796E00B
:10113000FF90EF90DF90CF900C946C358F929F9240
:10114000AF92BF92EF92FF920F931F934B015C01FE
:1011500080914106811103C081E080934106809116
:101160001B03811105C0C501B4010E940E0704C014
:10117000C501B4010E948B0780914806811111C0FE
:10118000A501940160912E0670912F068091300682
:10119000909131060E94FB3787FD03C081E0809368
:1011A0004806C501B4010E945008809148061F916D
:1011B0000F91FF90EF90BF90AF909F908F90089508
:1011C000CF92DF92EF92FF926B017C0141E060E0F1
:1011D00084E796E00E94FA2767E075E084E796E0EE
:1011E0000E948D3341E069E084E796E00E94FA278F
:1011F0002AE030E0B701A60184E796E0FF90EF9087
:10120000DF90CF900C9474340F931F932091EB05D3
:10121000222389F08091E6059091E705A091E805E9
:10122000B091E9058093DE059093DF05A093E0057A
:10123000B093E10508C06093DE057093DF058093ED
:10124000E0059093E1058AED95E00E9491038AED17
:1012500095E00E94A203811120C06091DE0570918B
:10126000DF058091E0059091E1050091E205109184
:10127000E3052091E4053091E505601B710B820BBD
:10128000930B28EE33E040E050E00E946638CA013C
:10129000B9010E94E00880E001C081E01F910F9138
:1012A00008954F925F926F927F92AF92BF92CF92CA
:1012B000DF92EF92FF920F931F932B013C01CA0123
:1012C000B901A8019701860175010E949E08882333
:1012D000A1F0A0E6BAEEA30192010E948E381F9100
:1012E0000F91FF90EF90DF90CF90BF90AF907F90E5
:1012F0006F905F904F900C94040980E01F910F91C4
:10130000FF90EF90DF90CF90BF90AF907F906F9065
:101310005F904F90089584E796E00E94F32740E0A5
:1013200060E084E796E00E94FA2768EF74E084E7C3
:1013300096E00C948D331092480610924A06109253
:1013400049061092460610924706109245061092E2
:101350004206109243061092400610923B061092ED
:101360003A061092390610923806109237061092FB
:10137000360684E993E00E94A12C0E948C030E940F
:101380008B0960ED77E080E090E00E94103284E706
:1013900096E00E94F3270E94BF0660932E0670938A
:1013A0002F0680933006909331061092DA05109242
:1013B000DB051092DC051092DD051092E605109217
:1013C000E7051092E8051092E9051092EA051092DF
:1013D000EB050E94F1060E944407809143060E949B
:1013E000B3050C94D005CF93DF93EC0140E060E0AF
:1013F00084E796E00E94FA2765EF74E084E796E0C0
:101400000E948D3340E060E084E796E00E94FA2776
:1014100060913606709137064AE050E084E796E026
:101420000E946C3440E063E084E796E00E94FA2773
:10143000C031D105D0F5FE01EC5CFF4F0C9488382B
:1014400068EE74E02CC06BED74E029C06EEC74E0C3
:1014500026C061EC74E023C064EB74E020C067EA4E
:1014600074E01DC06AE974E01AC06DE874E017C04A
:1014700060E874E014C063E774E011C066E674E0ED
:101480000EC069E574E00BC06CE474E008C06FE363
:1014900074E005C062E374E002C065E274E084E7D2
:1014A00096E0DF91CF910C948D33DF91CF91089529
:1014B000CF92DF92EF92FF92CF93DF93EC016A011C
:1014C0007B0140E060E084E796E00E94FA27BE01DD
:1014D00084E796E00E94B23341E060E084E796E062
:1014E0000E94FA276AE174E084E796E00E948D3357
:1014F00041E060E084E796E00E94FA272AE030E0CD
:10150000B701A60184E796E0DF91CF91FF90EF90BD
:10151000DF90CF900C942234CF92DF92EF92FF9223
:10152000CF93DF93EC016A017B0140E060E084E748
:1015300096E00E94FA27BE0184E796E00E94B2334B
:1015400041E060E084E796E00E94FA276FE074E0F3
:1015500084E796E00E948D3341E060E084E796E006
:101560000E94FA2722E030E0B701A60184E796E066
:10157000DF91CF91FF90EF90DF90CF900C946C357E
:1015800041E060E084E796E00E94FA276EEF73E0A6
:1015900084E796E00C948D331F93CF93DF931F92D3
:1015A000CDB7DEB7182F80914906811103C081E0C5
:1015B0008093490669830E94E5056981019789F452
:1015C00080914A06811111C061111092470681E095
:1015D00080934A0668EC70E080E090E00E94103250
:1015E00004C010924A066093470611110E94C00A77
:1015F00080914A060F90DF91CF911F9108954F92ED
:101600005F926F927F92AF92BF92CF92DF92EF92F2
:10161000FF920F931F93CF93DF93CDB7DEB72A9737
:101620000FB6F894DEBF0FBECDBF29013A01EF829D
:10163000F88609871A87CE0101960E941436B301F5
:10164000A201CE0101960E94580ACE0101960E9485
:101650006E350E943E068823B1F08FEF481A580A73
:10166000680A780A8F819885A985BA858A159B05AD
:10167000AC05BD05A9F1A414B504C604D70484F5CE
:10168000250136012DC00E9461068823B1F091E04A
:10169000491A5108610871088F819885A985BA8512
:1016A0008A159B05AC05BD05D9F0481659066A0692
:1016B0007B06B4F42C013D0113C060E080E00E9481
:1016C000CC0A882369F084E796E00E94F327809192
:1016D0003806909139060196909339068093380622
:1016E000C301B2012A960FB6F894DEBF0FBECDBF7C
:1016F000DF91CF911F910F91FF90EF90DF90CF90EE
:10170000BF90AF907F906F905F904F9008958F92B1
:101710009F92AF92BF92CF92DF92EF92FF920F9380
:101720001F93CF93DF9300D000D000D0CDB7DEB7AA
:1017300049015A0167017801CE0101960E941436D1
:10174000B501A401CE0101960E948C0ACE0101963A
:101750000E946E350E943E06882339F0A70196014B
:10176000C501B4010E9448360AC00E946106882360
:1017700049F0A7019601C501B4010E9447364B010B
:101780005C0113C060E080E00E94CC0A882369F00D
:1017900084E796E00E94F3278091380690913906FD
:1017A00001969093390680933806C501B4012696B8
:1017B0000FB6F894DEBF0FBECDBFDF91CF911F9162
:1017C0000F91FF90EF90DF90CF90BF90AF909F90E0
:1017D0008F900895CF92DF92EF92FF92CF93DF9395
:1017E000EC016A017B01642F0E948A039927F7FCB0
:1017F0009A958F2D7E2D6D2DCE0101960E948A0324
:10180000B701992777FD9095892FCE0102960E9406
:101810008A036F2D772788279927CE010396DF91BA
:10182000CF91FF90EF90DF90CF900C948A03CF92EE
:10183000DF92EF92FF920F931F93CF936B017C0186
:10184000CB010E948803182FC60101960E948803CD
:10185000C82FC60102960E948803082FC60103966E
:101860000E948803C82E8C2F90E0A0E0B0E066278D
:10187000782F892F9A2F610F711D811D911D10E006
:1018800020E030E0980111270027600F711F821FB0
:10189000931FD12CE12CF12CFC2CEE24DD24CC2444
:1018A0006C0D7D1D8E1D9F1DCF911F910F91FF907F
:1018B000EF90DF90CF9008950F931F93CF93DF9316
:1018C00009E113E0C4E0D0E0CE010E948803F801F2
:1018D00081938F012196C434D105B1F706E011E060
:1018E000C4E4D0E0CE010E948803F80181938F0107
:1018F0002196C735F2E0DF07A9F7DF91CF911F915D
:101900000F9108950F931F93CF93DF934DE852E506
:1019100060E070E080E090E00E94EA0B09E113E0F3
:10192000C4E0D0E0F80161918F01CE010E948A03EA
:101930002196C434D105B1F706E011E0C4E4D0E04B
:10194000F80161918F01CE010E948A032196C7356B
:10195000F2E0DF07A9F7DF91CF911F910F91089572
:10196000CF93DF93EC01AC01662757FD6095762F8E
:1019700087E592E00E94EA0BCD2BA9F04091DE05AD
:101980005091DF056091E0057091E1058091E205DD
:101990009091E305A091E405B091E505481B590B32
:1019A0006A0B7B0B03C040E050E0BA018BE592E08C
:1019B000DF91CF910C94EA0B2091360630913706D7
:1019C00080913A0690913B062115310539F0009738
:1019D00029F430933B0620933A0605C00196909374
:1019E0003B0680933A0610924806109240061092E9
:1019F000410610924A06109249061092DA0510929A
:101A0000DB051092DC051092DD051092E6051092C0
:101A1000E7051092E8051092E9051092EA05109288
:101A2000EB0584E796E00E94F3270E94E131609382
:101A30003206709333068093340690933506809176
:101A40003A0690913B060C94B00C4F925F926F92C5
:101A50007F929F92AF92BF92CF92DF92EF92FF92CE
:101A60000F931F93CF93DF93CDB7DEB72A970FB6AF
:101A7000F894DEBF0FBECDBFE0913806F091390675
:101A8000E833F10510F00C94401BEC5BFF4F0C9415
:101A9000883880913606909137060E94F3090E949B
:101AA000830660E081E00E94CC0A882311F40C9444
:101AB0004C1B84E796E00E94F327809136069091B4
:101AC0003706892B39F480913806909139060196B2
:101AD0000C94091B0E94DC0C0C944C1B20911903E4
:101AE00030911A03442737FD4095542F60EF73E07F
:101AF000CE0101962F83388749875A870E943E3648
:101B000042E0A42EB12CC12CD12CE12CF12C870168
:101B10002F81388549855A85BE016F5F7F4F80E0F0
:101B200090E00E94FF0A6B017C01CE0101960E94A9
:101B30006E35D0921A03C09219030C944C1B8091FD
:101B4000190390911A0331EB932E989EF001999E00
:101B5000F00D1124EA5FFE4F2081318142815381D3
:101B60006FED73E0CE0101962F83388749875A873E
:101B70000E943E36A12CB12C6501E12CF12C87018D
:101B80002F81388549855A85BE016F5F7F4F80E080
:101B900090E00E94FF0A6B017C01CE0101960E9439
:101BA0006E358091190390911A03989EF001999EC9
:101BB000F00D1124EA5FFE4F4EC4809119039091FD
:101BC0001A0321EB922E989EF001999EF00D11249C
:101BD000EA5FFE4F64817581868197810E94183784
:101BE0009B01AC0160ED73E0CE0101962F83388735
:101BF00049875A870E943E36A12CB12C6501E12C01
:101C0000F12C87012F81388549855A85BE016F5F88
:101C10007F4F80E090E00E94FF0A6B017C01CE01C3
:101C200001960E946E358091190390911A03989E37
:101C30008001999E100D11240A5F1E4FC701B60145
:101C40000E944B37F80164837583868397830C94D5
:101C50004C1B8091190390911A0311EB912E989EC1
:101C6000F001999EF00D1124EA5FFE4F2085318529
:101C7000428553856FEB73E0CE0101962F83388741
:101C800049875A870E943E361AE0E12E17EDF12E61
:101C900003E21CE32F81388549855A85BE016F5FB9
:101CA0007F4F80E090E00E94870B6B017C01CE01AA
:101CB00001960E946E358091190390911A03989EA7
:101CC000F001999EF00D1124EA5FFE4FC086D18687
:101CD000E286F3860C944C1B8091190390911A03B1
:101CE000A1EB9A2E989EF001999EF00D1124EA5FC7
:101CF000FE4F24853585468557856EEA73E0CE0113
:101D000001962F83388749875A870E943E361AE00A
:101D1000E12E17EDF12E03E21CE32F813885498572
:101D20005A85BE016F5F7F4F80E090E00E94870B75
:101D30006B017C01CE0101960E946E3580911903E2
:101D400090911A03989EF001999EF00D1124EA5F7C
:101D5000FE4FC486D586E686F7860C944C1B809190
:101D6000190390911A03F1EB9F2E989EF001999E12
:101D7000F00D1124EA5FFE4F208931894289538991
:101D800060EA73E0CE0101962F83388749875A872E
:101D90000E943E36A12CB12C6501E12CF12C87016B
:101DA0002F81388549855A85BE016F5F7F4F80E05E
:101DB00090E00E94FF0A6B017C01CE0101960E9417
:101DC0006E358091190390911A03989EF001999EA7
:101DD000F00D1124EA5FFE4FC08AD18AE28AF38AAD
:101DE0000C944C1B8091190390911A03E1EB9E2EE9
:101DF000989EF001999EF00D1124EA5FFE4F6489D0
:101E00007589868997890E9418379B01AC0162E920
:101E100073E0CE0101962F83388749875A870E9445
:101E20003E36A12CB12C6501E12CF12C87012F81CC
:101E3000388549855A85BE016F5F7F4F80E090E00D
:101E40000E94FF0A6B017C01CE0101960E946E3553
:101E50008091190390911A03989E8001999E100D0C
:101E600011240A5F1E4FC701B6010E944B37F801CB
:101E7000648B758B868B978B0C944C1B809119030C
:101E800090911A0361EB962E989EF001999EF00DA9
:101E90001124EA5FFE4F208D318D428D538D62E813
:101EA00073E0CE0101962F83388749875A870E94B5
:101EB0003E361AE0E12E17EDF12E03E21CE32F81EE
:101EC000388549855A85BE016F5F7F4F80E090E07D
:101ED0000E94870B6B017C01CE0101960E946E353A
:101EE0008091190390911A03989EF001999EF00D2C
:101EF0001124EA5FFE4FC08ED18EE28EF38E0C94D9
:101F00004C1B8091190390911A0341EB942E989EDB
:101F1000F001999EF00D1124EA5FFE4F248D358D5E
:101F2000468D578D62E773E0CE0101962F83388787
:101F300049875A870E943E361AE0E12E17EDF12EAE
:101F400003E21CE32F81388549855A85BE016F5F06
:101F50007F4F80E090E00E94870B6B017C01CE01F7
:101F600001960E946E358091190390911A03989EF4
:101F7000F001999EF00D1124EA5FFE4FC48ED58EBC
:101F8000E68EF78E0C944C1B8091190390911A03E6
:101F900031EB932E989EF001999EF00D1124EA5F8B
:101FA000FE4F20A131A142A153A164E673E0CE010E
:101FB00001962F83388749875A870E943E36A12C85
:101FC000B12C6501E12CF12C87012F8138854985E1
:101FD0005A85BE016F5F7F4F80E090E00E94FF0A4C
:101FE0006B017C01CE0101960E946E358091190330
:101FF00090911A03989EF001999EF00D1124EA5FCA
:10200000FE4FC0A2D1A2E2A2F3A20C944C1B80917D
:10201000190390911A0321EB922E989EF001999E3C
:10202000F00D1124EA5FFE4F64A175A186A197A16E
:102030000E9418379B01AC0166E573E0CE01019662
:102040002F83388749875A870E943E36A12CB12CAE
:102050006501E12CF12C87012F81388549855A854E
:10206000BE016F5F7F4F80E090E00E94FF0A6B012E
:102070007C01CE0101960E946E35809119039091EA
:102080001A03989E8001999E100D11240A5F1E4F1D
:10209000C701B6010E944B37F80164A375A386A35C
:1020A00097A30C944C1B8091190390911A0311EB88
:1020B000912E989EF001999EF00D1124EA5FFE4F3B
:1020C00020A531A542A553A566E473E0CE01019693
:1020D0002F83388749875A870E943E361AE0E12EBF
:1020E00017EDF12E03E21CE32F81388549855A85CF
:1020F000BE016F5F7F4F80E090E00E94870B6B0115
:102100007C01CE0101960E946E3580911903909159
:102110001A03989EF001999EF00D1124EA5FFE4F7C
:10212000C0A6D1A6E2A6F3A60C944C1B809119037D
:1021300090911A03A1EB9A2E989EF001999EF00DB2
:102140001124EA5FFE4F24A535A546A557A566E3F1
:1021500073E0CE0101962F83388749875A870E9402
:102160003E361AE0E12E17EDF12E03E21CE32F813B
:10217000388549855A85BE016F5F7F4F80E090E0CA
:102180000E94870B6B017C01CE0101960E946E3587
:102190008091190390911A03989EF001999EF00D79
:1021A0001124EA5FFE4FC4A6D5A6E6A6F7A60C94B6
:1021B0004C1B8091190390911A03F1EB9F2E989E6E
:1021C000F001999EF00D1124EA5FFE4F20A931A97C
:1021D00042A953A967E273E0CE0101962F833887A5
:1021E00049875A870E943E36A12CB12C6501E12C0B
:1021F000F12C87012F81388549855A85BE016F5F93
:102200007F4F80E090E00E94FF0A6B017C01CE01CD
:1022100001960E946E358091190390911A03989E41
:10222000F001999EF00D1124EA5FFE4FC0AAD1AAD9
:10223000E2AAF3AA0C944C1B8091190390911A0303
:10224000E1EB9E2E989EF001999EF00D1124EA5F1D
:10225000FE4F64A975A986A997A90E9418379B010A
:10226000AC0168E173E0CE0101962F83388749877E
:102270005A870E943E36A12CB12C6501E12CF12C2D
:1022800087012F81388549855A85BE016F5F7F4F51
:1022900080E090E00E94FF0A6B017C01CE01019674
:1022A0000E946E358091190390911A03989E8001C7
:1022B000999E100D11240A5F1E4FC701B6010E949E
:1022C0004B37F80164AB75AB86AB97AB0C944C1BEA
:1022D0008091190390911A0361EB962E989EF0015C
:1022E000999EF00D1124EA5FFE4F20AD31AD42AD55
:1022F00053AD67E073E0CE0101962F83388749879D
:102300005A870E943E361AE0E12E17EDF12E03E2C5
:102310001CE32F81388549855A85BE016F5F7F4F49
:1023200080E090E00E94870B6B017C01CE0101965A
:102330000E946E358091190390911A03989EF001C6
:10234000999EF00D1124EA5FFE4FC0AED1AEE2AE11
:10235000F3AE0C944C1B8091190390911A0341EB3E
:10236000942E989EF001999EF00D1124EA5FFE4F85
:1023700024AD35AD46AD57AD66EF72E0CE010196A6
:102380002F83388749875A870E943E361AE0E12E0C
:1023900017EDF12E03E21CE32F81388549855A851C
:1023A000BE016F5F7F4F80E090E00E94870B6B0162
:1023B0007C01CE0101960E946E35809119039091A7
:1023C0001A03989EF001999EF00D1124EA5FFE4FCA
:1023D000C4AED5AEE6AEF7AE0C944C1B809119039B
:1023E00090911A0331EB932E989EF001999EF00D77
:1023F0001124EA5BFE4F208131814281538168EED6
:1024000072E0CE0101962F83388749875A870E9450
:102410003E36A12CB12C6501E12CF12C87012F81D6
:10242000388549855A85BE016F5F7F4F80E090E017
:102430000E94FF0A6B017C01CE0101960E946E355D
:102440008091190390911A03989EF001999EF00DC6
:102450001124EA5BFE4FC082D182E282F3820C94A7
:102460004C1B8091190390911A0321EB922E989E98
:10247000F001999EF00D1124E65BFE4F60817181A1
:10248000828193810E9418379B01AC016AED72E052
:10249000CE0101962F83388749875A870E943E369E
:1024A000A12CB12C6501E12CF12C87012F813885FD
:1024B00049855A85BE016F5F7F4F80E090E00E94A2
:1024C000FF0A6B017C01CE0101960E946E3580915E
:1024D000190390911A03989E8001999E100D112462
:1024E000065B1E4F40C18091190390911A03B1EB16
:1024F0009B2E989EF001999EF00D1124E25BFE4FF9
:1025000020813181428153816AEC72E0CE010196D3
:102510002F83388749875A870E943E361AE0E12E7A
:1025200017EDF12E03E21CE32F81388549855A858A
:10253000BE016F5F7F4F80E090E00E94870B6B01D0
:102540007C01CE0101960E946E3580911903909115
:102550001A03989EF001999EF00D1124E25BFE4F44
:102560003DC08091190390911A03F1EB9F2E989E24
:10257000F001999EF00D1124EE5AFE4F2081318119
:10258000428153816AEB72E0CE0101962F83388736
:1025900049875A870E943E361AE0E12E17EDF12E48
:1025A00003E21CE32F81388549855A85BE016F5FA0
:1025B0007F4F80E090E00E94870B6B017C01CE0191
:1025C00001960E946E358091190390911A03989E8E
:1025D000F001999EF00D1124EE5AFE4FC082D18277
:1025E000E282F3820C944C1B8091190390911A03A0
:1025F000E1EB9E2E989EF001999EF00D1124EA5475
:10260000FE4F208130E040E050E06EEA72E0CE0103
:1026100001962F83388749875A870E943E36A12C1E
:10262000B12C6501E12CF12C87012F81388549857A
:102630005A85BE016F5F7F4F80E090E00E94FF0AE5
:10264000CE0101966F830E946E358091190390919F
:102650001A03989EF001999EF00D1124EA54FE4F42
:102660006F8160830C944C1B8091190390911A0325
:1026700071EB972E989EF001999EF00D1124EA5A65
:10268000FE4F208131814281538160EA72E0CE01A8
:1026900001962F83388749875A870E943E36A12C9E
:1026A000B12C6501E12CF12C87012F8138854985FA
:1026B0005A85BE016F5F7F4F80E090E00E94FF0A65
:1026C0006B017C01CE0101960E946E358091190349
:1026D00090911A03989EF001999EF00D1124EA5AE8
:1026E000FE4FB9CE8091190390911A0361EB962E9B
:1026F000989EF001999EF00D1124E65AFE4F6081DC
:102700007181828193810E9418379B01AC0162E93B
:1027100072E0CE0101962F83388749875A870E943D
:102720003E36A12CB12C6501E12CF12C87012F81C3
:10273000388549855A85BE016F5F7F4F80E090E004
:102740000E94FF0A6B017C01CE0101960E946E354A
:102750008091190390911A03989E8001999E100D03
:102760001124065A1E4FC701B6010E944B37F801CB
:1027700060837183828393838FC7809119039091C3
:102780001A0341EB942E989EF001999EF00D1124AE
:10279000E25AFE4F208131814281538162E872E02A
:1027A000CE0101962F83388749875A870E943E368B
:1027B0001AE0E12E17EDF12E03E21CE32F8138859C
:1027C00049855A85BE016F5F7F4F80E090E00E948F
:1027D000870B6B017C01CE0101960E946E358091C2
:1027E000190390911A03989EF001999EF00D1124FF
:1027F000E25AFE4FF3CE8091190390911A0321EB18
:10280000922E989EF001999EF00D1124EE59FE4FE4
:10281000208131814281538162E772E0CE010196CD
:102820002F83388749875A870E943E361AE0E12E67
:1028300017EDF12E03E21CE32F81388549855A8577
:10284000BE016F5F7F4F80E090E00E94870B6B01BD
:102850007C01CE0101960E946E3580911903909102
:102860001A03989EF001999EF00D1124EE59FE4F27
:10287000B5CE8091190390911A0301EB902E989E8A
:10288000F001999EF00D1124EA59FE4F208131810B
:102890004281538163E672E0CE0101962F8338872F
:1028A00049875A870E943E36A12CB12C6501E12C44
:1028B000F12C87012F81388549855A85BE016F5FCC
:1028C0007F4F80E090E00E94FF0A6B017C01CE0107
:1028D00001960E946E358091190390911A03989E7B
:1028E000F001999EF00D1124EA59FE4FB4CD80916C
:1028F000190390911A0311EB912E989EF001999E65
:10290000F00D1124E659FE4F60817181828193811F
:102910000E9418379B01AC0164E572E0CE0101967C
:102920002F83388749875A870E943E36A12CB12CC5
:102930006501E12CF12C87012F81388549855A8565
:10294000BE016F5F7F4F80E090E00E94FF0A6B0145
:102950007C01CE0101960E946E3580911903909101
:102960001A03989E8001999E100D112406591E4F3E
:10297000FACE8091190390911A03A1EB9A2E989E9A
:10298000F001999EF00D1124E259FE4F2081318112
:102990004281538163E472E0CE0101962F83388730
:1029A00049875A870E943E361AE0E12E17EDF12E34
:1029B00003E21CE32F81388549855A85BE016F5F8C
:1029C0007F4F80E090E00E94870B6B017C01CE017D
:1029D00001960E946E358091190390911A03989E7A
:1029E000F001999EF00D1124E259FE4FF7CD809130
:1029F000190390911A03E1EB9E2E989EF001999E87
:102A0000F00D1124EE58FE4F208131814281538117
:102A100062E372E0CE0101962F83388749875A8797
:102A20000E943E361AE0E12E17EDF12E03E21CE380
:102A30002F81388549855A85BE016F5F7F4F80E0C1
:102A400090E00E94870B6B017C01CE0101960E94F1
:102A50006E358091190390911A03989EF001999E0A
:102A6000F00D1124EE58FE4FB9CD809119039091CD
:102A70001A0371EB972E989EF001999EF00D112488
:102A8000EA58FE4F208131814281538162E272E037
:102A9000CE0101962F83388749875A870E943E3698
:102AA000A12CB12C6501E12CF12C87012F813885F7
:102AB00049855A85BE016F5F7F4F80E090E00E949C
:102AC000FF0A6B017C01CE0101960E946E35809158
:102AD000190390911A03989EF001999EF00D11240C
:102AE000EA58FE4FB8CC8091190390911A0361EB1C
:102AF000962E989EF001999EF00D1124EA57FE4FF4
:102B0000208131814281538163E172E0CE010196DF
:102B10002F83388749875A870E943E36A12CB12CD3
:102B20006501E12CF12C87012F81388549855A8573
:102B3000BE016F5F7F4F80E090E00E94FF0A6B0153
:102B40007C01CE0101960E946E358091190390910F
:102B50001A03989EF001999EF00D1124EA57FE4F3A
:102B60007ACC8091190390911A0351EB952E989E7F
:102B7000F001999EF00D1124EA56FE4F208131811B
:102B80004281538165E072E0CE0101962F83388740
:102B900049875A870E943E36A12CB12C6501E12C51
:102BA000F12C87012F81388549855A85BE016F5FD9
:102BB0007F4F80E090E00E94FF0A6B017C01CE0114
:102BC00001960E946E358091190390911A03989E88
:102BD000F001999EF00D1124EA56FE4F3CCC8091F5
:102BE000190390911A0341EB942E989EF001999E3F
:102BF000F00D1124E656FE4F608171818281938130
:102C00000E9418379B01AC016BEF71E0CE01019679
:102C10002F83388749875A870E943E36A12CB12CD2
:102C20006501E12CF12C87012F81388549855A8572
:102C3000BE016F5F7F4F80E090E00E94FF0A2B0192
:102C40003C01CE0101960E946E35E0901903F09090
:102C50001A03C301B2010E944B379E9C90019F9CB6
:102C6000300D11242A5F3E4FF901EC56FF4F60836F
:102C7000718382839383B09760837183828393830C
:102C8000709676CD8091190390911A0321EB922EC4
:102C9000989EF001999EF00D1124E256FE4F20817E
:102CA0003181428153816FEE71E0CE0101962F8315
:102CB000388749875A870E943E361AE0E12E17ED81
:102CC000F12E03E21CE32F81388549855A85BE0128
:102CD0006F5F7F4F80E090E00E94870B6B017C016B
:102CE000CE0101960E946E352091190330911A038E
:102CF000929EC001939E900D11248A5F9E4FFC010D
:102D0000E856FF4F40C08091190390911A03B1EB30
:102D10009B2E989EF001999EF00D1124EE55FE4FCA
:102D2000208131814281538163EE71E0CE010196B1
:102D30002F83388749875A870E943E361AE0E12E52
:102D400017EDF12E03E21CE32F81388549855A8562
:102D5000BE016F5F7F4F80E090E00E94870B6B01A8
:102D60007C01CE0101960E946E35209119033091AD
:102D70001A03929EC001939E900D11248A5F9E4F6C
:102D8000FC01E456FF4FC082D182E282F382B09709
:102D9000C082D182E282F382709620CC80911903A6
:102DA00090911A03F1EB9F2E989EF001999EF00DE1
:102DB0001124EA55FE4F208131814281538166ED15
:102DC00071E0CE0101962F83388749875A870E9488
:102DD0003E36A12CB12C6501A394E12CF12C870186
:102DE0002F81388549855A85BE016F5F7F4F80E00E
:102DF00090E00E94FF0A6B017C01CE0101960E94C7
:102E00006E358091190390911A03989EF001999E56
:102E1000F00D1124EA55FE4F1ECB20911C0330917A
:102E20001D0340911E0350911F036FEC71E0CE0112
:102E300001962F83388749875A870E943E361AE0C9
:102E4000E12E17EDF12E03E21CE32F813885498531
:102E50005A85BE016F5F7F4F80E090E00E94870B34
:102E60006B017C01CE0101960E946E35C0921C035D
:102E7000D0921D03E0921E03F0921F030DC4209117
:102E8000200330912103409122035091230368ECE9
:102E900071E0CE0101962F83388749875A870E94B7
:102EA0003E361AE0E12E17EDF12E03E21CE32F81EE
:102EB000388549855A85BE016F5F7F4F80E090E07D
:102EC0000E94870B6B017C01CE0101960E946E353A
:102ED000C0922003D0922103E0922203F0922303B8
:102EE000DBC32091420330E040E050E06AEB71E048
:102EF000CE0101962F83388749875A870E943E3634
:102F0000A12CB12C6501A394E12CF12C87012F8118
:102F1000388549855A85BE016F5F7F4F80E090E01C
:102F20000E94FF0ACE0101966F830E946E356F8169
:102F300060934203B1C380914203811132C020915A
:102F4000430330914403409145035091460361EBA4
:102F500071E0CE0101962F83388749875A870E94F6
:102F60003E36A12CB12C6501E12CF12C87012F817B
:102F7000388549855A85BE016F5F7F4F80E090E0BC
:102F80000E94FF0A6B017C01CE0101960E946E3502
:102F9000C0924303D0924403E0924503F09246036B
:102FA0007BC320914E0330914F03409150035091C9
:102FB000510368EA71E0CE0101962F833887498773
:102FC0005A870E943E36A12CB12C6501E12CF12CD0
:102FD00087012F81388549855A85BE016F5F7F4FF4
:102FE00080E090E00E94FF0A6B017C01CE01019617
:102FF0000E946E35C0924E03D0924F03E092500370
:10300000F092510349C380914203811132C0209153
:103010004703309148034091490350914A036EE9B8
:1030200071E0CE0101962F83388749875A870E9425
:103030003E36A12CB12C6501E12CF12C87012F81AA
:10304000388549855A85BE016F5F7F4F80E090E0EB
:103050000E94FF0A6B017C01CE0101960E946E3531
:10306000C0924703D0924803E0924903F0924A038A
:1030700013C32091540330E040E050E068E971E070
:10308000CE0101962F83388749875A870E943E36A2
:103090005AE0A52EB12CC12CD12CE12CF12C8701AA
:1030A0002F81388549855A85BE016F5F7F4F80E04B
:1030B00090E00E94FF0ACE0101966F830E946E3558
:1030C0006F8160935403E8C28091420381112FC045
:1030D00020914C0330914D0340E050E06FE871E0E7
:1030E000CE0101962F83388749875A870E943E3642
:1030F00040E1A42E47E2B42EC12CD12CE12CF12CBE
:1031000087012F81388549855A85BE016F5F7F4FC2
:1031100080E090E00E94FF0A6B017C01CE010196E5
:103120000E946E35D0924D03C0924C03B5C22091DF
:1031300052033091530340E050E066E871E0CE0165
:1031400001962F83388749875A870E943E3630E19F
:10315000A32E37E2B32EC12CD12CE12CF12C870108
:103160002F81388549855A85BE016F5F7F4F80E08A
:1031700090E00E94FF0A6B017C01CE0101960E9443
:103180006E35D0925303C092520386C220914B03F6
:1031900030E040E050E068E771E0CE0101962F8317
:1031A000388749875A870E943E3624E6A22EB12CE2
:1031B000C12CD12CE12CF12C87012F813885498538
:1031C0005A85BE016F5F7F4F80E090E00E94FF0A4A
:1031D000CE0101966F830E946E356F8160934B0321
:1031E0005BC220911B0330E040E050E063E771E0F8
:1031F000CE0101962F83388749875A870E943E3631
:10320000A12CB12C6501A394E12CF12C87012F8115
:10321000388549855A85BE016F5F7F4F80E090E019
:103220000E94FF0ACE0101966F830E946E356F8166
:1032300060931B0331C280911B03882361F12091AD
:1032400024033091250340E050E067E671E0CE01B1
:1032500001962F83388749875A870E943E36A12CD2
:10326000B12C6501E12CF12C87012F81388549852E
:103270005A85BE016F5F7F4F80E090E00E94FF0A99
:103280006B017C01CE0101960E946E35D092250320
:10329000C092240301C28FE290E0BBC180911B0366
:1032A000882371F12091260330912703442737FDAD
:1032B0004095542F6AE571E0CE0101962F8338873F
:1032C00049875A870E943E36A12CB12C6501E12C1A
:1032D000F12C87012F81388549855A85BE016F5FA2
:1032E0007F4F80E090E00E94FF0A6B017C01CE01DD
:1032F00001960E946E35D0922703C0922603CCC15E
:1033000080E390E086C180911B03882391F1209196
:1033100028033091290340912A0350912B0363E540
:1033200071E0CE0101962F83388749875A870E9422
:103330003E361DECE12E1CECF12E0CEC1DE32F8132
:10334000388549855A85BE016F5F7F4F80E090E0E8
:103350000E94870B6B017C01CE0101960E946E35A5
:10336000C0922803D0922903E0922A03F0922B0303
:1033700093C181E390E04DC180911B03882391F1BB
:1033800020912C0330912D0340912E0350912F0357
:103390006FE471E0CE0101962F83388749875A8701
:1033A0000E943E361AE0E12E17EDF12E03E21CE3F7
:1033B0002F81388549855A85BE016F5F7F4F80E038
:1033C00090E00E94870B6B017C01CE0101960E9468
:1033D0006E35C0922C03D0922D03E0922E03F09212
:1033E0002F035AC182E390E014C180911B0388230C
:1033F00091F120913003309131034091320350918B
:1034000033036BE471E0CE0101962F83388749873F
:103410005A870E943E361AE0E12E17EDF12E03E2A4
:103420001CE32F81388549855A85BE016F5F7F4F28
:1034300080E090E00E94870B6B017C01CE01019639
:103440000E946E35C0923003D0923103E092320375
:10345000F092330321C183E390E0DBC080911B0332
:10346000882391F120913403309135034091360344
:103470005091370367E471E0CE0101962F833887BE
:1034800049875A870E943E361AE0E12E17EDF12E49
:1034900003E21CE32F81388549855A85BE016F5FA1
:1034A0007F4F80E090E00E94870B6B017C01CE0192
:1034B00001960E946E35C0923403D0923503E0929B
:1034C0003603F0923703E8C084E390E0A2C0809115
:1034D0001B03882381F120913803309139034091F7
:1034E0003A0350913B036CE371E0CE0101962F83C8
:1034F000388749875A870E943E36E12CF12C00E834
:103500001FE32F81388549855A85BE016F5F7F4F44
:1035100080E090E00E94870B6B017C01CE01019658
:103520000E946E35C0923803D0923903E0923A037C
:10353000F0923B03B1C085E390E06BC080911B0328
:10354000882391F120913C0330913D0340913E034B
:1035500050913F0360E371E0CE0101962F833887DD
:1035600049875A870E943E361AE0E12E17EDF12E68
:1035700003E21CE32F81388549855A85BE016F5FC0
:103580007F4F80E090E00E94870B6B017C01CE01B1
:1035900001960E946E35C0923C03D0923D03E092AA
:1035A0003E03F0923F0378C086E390E032C0809102
:1035B0001B03882361F1209140033091410340E0D7
:1035C00050E060E271E0CE0101962F833887498791
:1035D0005A870E943E36A12CB12C6501E12CF12CBA
:1035E00087012F81388549855A85BE016F5F7F4FDE
:1035F00080E090E00E94FF0A6B017C01CE01019601
:103600000E946E35D0924103C092400345C087E3CB
:1036100090E090933906809338063EC02091550380
:1036200030915603409157035091580368E171E07F
:10363000CE0101962F83388749875A870E943E36EC
:103640001DECE12E1CECF12E0CEC1DE32F813885D6
:1036500049855A85BE016F5F7F4F80E090E00E94F0
:10366000870B6B017C01CE0101960E946E35C092E2
:103670005503D0925603E0925703F09258030CC0C2
:103680000E94820C84E796E00E94F3270E94440780
:1036900010923906109238062A960FB6F894DEBFBB
:1036A0000FBECDBFDF91CF911F910F91FF90EF9093
:1036B000DF90CF90BF90AF909F907F906F905F9082
:1036C0004F900895AF92BF92CF92DF92EF92FF9208
:1036D0000F931F93CF9380913A0690913B06892BCD
:1036E00009F4AEC080E196E00E94910380E196E08B
:1036F0000E94A203882321F1109210061092110655
:10370000109212061092130610921C0610921D06BB
:1037100010921E0610921F0610922006109221068B
:103720000E94BF0660932E0670932F06809330068A
:10373000909331060E94D005809142060E94B30505
:103740008EEF95E00E9491038091440681113CC464
:103750008EEF95E00E94A203811136C488EC95E0BB
:103760000E94910388EC95E00E94A2038823E9F06F
:103770001092C8051092C9051092CA051092CB0587
:103780001092D4051092D5051092D6051092D70547
:103790001092D8051092D90580E00E94E906809128
:1037A0003A0690913B060E94B00C0E948306882343
:1037B000B1F00E948C031092C8051092C9051092B6
:1037C000CA051092CB051092D4051092D50510921F
:1037D000D6051092D7051092D8051092D9058CEE17
:1037E00095E00E9491038CEE95E00E94A20388234D
:1037F00029F11092EC051092ED051092EE05109251
:10380000EF051092F8051092F9051092FA05109242
:10381000FB051092FC051092FD0580914706882358
:1038200039F08091430691E089278093430602C0D6
:1038300010924306809143060E94B3050E94290618
:10384000E0913A06F0913B06E031F10508F0ADC396
:10385000E458FF4F0C948838CF911F910F91FF903F
:10386000EF90DF90CF90BF90AF900C94250D80919A
:10387000190390911A03C1EBC89FF001C99FF00D85
:103880001124EA5FFE4FE484F584068517852085C0
:1038900031854285538564817581868197810E9437
:1038A0009E08882309F4D0C38091190390911A03CC
:1038B000C89FF001C99FF00D1124EA5FFE4F80817F
:1038C0009181A281B381892B8A2B8B2B09F462C34E
:1038D00061E081E00E94CC0A882309F4B5C35AC391
:1038E00080914106811103C081E08093410680915F
:1038F000190390911A03C1EBC89FF001C99FF00D05
:103900001124EA5FFE4FA484B584C684D784E08482
:10391000F184028513852481358146815781608138
:103920007181828193810E945109811133C38091F9
:10393000190390911A03C89FF001C99FF00D11243B
:10394000EA5FFE4F80819181A281B3818FC0809117
:10395000190390911A03C1EBC89FF001C99FF00DA4
:103960001124EA5FFE4FA48CB58CC68CD78CE08CFA
:10397000F18C028D138D2489358946895789608998
:103980007189828993890E945109811103C38091B1
:10399000190390911A03C89FF001C99FF00D1124DB
:1039A000EA5FFE4F80899189A289B3895FC08091C7
:1039B000190390911A03C1EBC89FF001C99FF00D44
:1039C0001124EA5FFE4FA4A4B5A4C6A4D7A4E0A422
:1039D000F1A402A513A524A135A146A157A160A178
:1039E00071A182A193A10E9451098111D3C280913A
:1039F000190390911A03C89FF001C99FF00D11247B
:103A0000EA5FFE4F80A191A1A2A1B3A12FC0809136
:103A1000190390911A03C1EBC89FF001C99FF00DE3
:103A20001124EA5FFE4FA4ACB5ACC6ACD7ACE0AC99
:103A3000F1AC02AD13AD24A935A946A957A960A9D7
:103A400071A982A993A90E9451098111A3C28091F1
:103A5000190390911A03C89FF001C99FF00D11241A
:103A6000EA5FFE4F80A991A9A2A9B3A9892B8A2B4D
:103A70008B2B09F48FC2E8C22091190330911A03ED
:103A8000C1EBC29FC001C39F900D11248A5F9E4F5E
:103A9000FC01E45BFF4FA080B180C280D3803497EB
:103AA000E080F1800281138134972081318142814D
:103AB0005381349760817181828193810E94510981
:103AC0002091190330911A03811197C2C29FF0010E
:103AD000C39FF00D1124EA5BFE4F80819181A2818A
:103AE000B381892B8A2B8B2B09F487C2ADC220911D
:103AF000190330911A03C1EBC29FC001C39F900DFF
:103B000011248A5F9E4FFC01E45BFF4FE080F1804F
:103B1000028113813497208131814281538134970E
:103B200060817181828193810E949E088091190336
:103B300090911A03C89FF001C99FF00D1124EA5417
:103B4000FE4F8081813009F025C260E0C3CE209114
:103B5000190330911A03C1EBC29FC001C39F900D9E
:103B600011248A5F9E4FFC01E45AFF4FA080B18070
:103B7000C280D3803497E080F18002811381349732
:103B800020813181428153813497608171818281AA
:103B900093810E94510981119BCE809119039091CC
:103BA0001A03C89FF001C99FF00D1124EA5AFE4F75
:103BB00031C02091190330911A03C1EBC29FC0019B
:103BC000C39F900D11248A5F9E4FFC01E459FF4F63
:103BD000A080B180C280D3803497E080F1800281E0
:103BE00013813497208131814281538134976081E0
:103BF0007181828193810E945109811169CE8091E6
:103C0000190390911A03C89FF001C99FF00D112468
:103C1000EA59FE4F80819181A281B381892B8A2B41
:103C20008B2B09F455CE10C22091190330911A0341
:103C300041EB429FC001439F900D11248A5F9E4F2C
:103C4000FC01E459FF4FE080F18002811381349739
:103C500020813181428153813497608171818281D9
:103C600093810E949E0860E034CE20911903309128
:103C70001A03C1EBC29FC001C39F900D11248A5F3C
:103C80009E4FFC01E458FF4FA080B180C280D380DA
:103C90003497E080F1800281138134972081318153
:103CA00042815381349760817181828193810E9426
:103CB00051092091190330911A038111AAC1C29FA1
:103CC000F001C39FF00D1124EA58FE4F80819181CD
:103CD000A281B381892B8A2B8B2B09F49AC1B4C1A1
:103CE0002091190330911A03C1EBC29FC001C39FF9
:103CF000900D11248A5F9E4FFC01E457FF4FA08076
:103D0000B180C280D3803497E080F180028113813A
:103D10003497208131814281538134976081718150
:103D2000828193810E9451092091190330911A03D5
:103D3000811178C1C29FF001C39FF00D1124EA5791
:103D4000FE4F80819181A281B381892B8A2B8B2B9D
:103D500009F468C179C12091190330911A03C1EBAC
:103D6000C29FC001C39F900D11248A5F9E4FFC012A
:103D7000E456FF4FA080B180C280D3803497E080AA
:103D8000F1800281138134972081318142815381F6
:103D9000349760817181828193810E9451092091C1
:103DA000190330911A03811146C1C29FF001C39FCC
:103DB000F00D1124EA56FE4F80819181A281B381DA
:103DC000892B8A2B8B2B09F436C13EC12091190314
:103DD00030911A03C1EBC29FC001C39F900D112403
:103DE0008A5F9E4FFC01E455FF4FA080B180C280E6
:103DF000D3803497E080F180028113813497208151
:103E000031814281538134976081718182819381B4
:103E10000E945109882309F417C1809119039091D8
:103E20001A03C89FF001C99FF00D1124EA55FE4FF7
:103E300080819181A281B381892B8A2B8B2B09F4FC
:103E4000A9C061E081E00E94CC0A882309F4FCC08B
:103E50000E94DC0C80913A0690913B06019690936B
:103E60003B0680933A06F0C080911B03811102C08B
:103E70000E94DC0C8091410681113BC061E070E042
:103E800084E993E00E944D3040913C0350913D0302
:103E900060913E0370913F0384E993E00E945130AA
:103EA000409138035091390360913A0370913B037C
:103EB00084E993E00E944530609140037091410392
:103EC00084E993E00E9457306091240370912503A8
:103ED00080E090E00E9449376093220670932306A9
:103EE000809324069093250681E0809341061092EA
:103EF00040068091190390911A0321EB289FF0014D
:103F0000299FF00D1124EA5FFE4FE484F5840685B5
:103F10001785208531854285538564817581868129
:103F200097810E949E08882309F48EC081E08093C7
:103F3000400684E993E00E94152D892B09F484C082
:103F400084E993E00E94A12C84E993E00E94E52F8C
:103F500060932C0370932D0380932E0390932F0373
:103F600084E993E00E94FD2F609330037093310346
:103F7000809332039093330384E993E00E942230CC
:103F80006093340370933503809336039093370323
:103F900010924006CF911F910F91FF90EF90DF900C
:103FA000CF90BF90AF900C94DC0C80E090E00E942A
:103FB000B00CCF911F910F91FF90EF90DF90CF90B9
:103FC000BF90AF900C949B091092FE051092FF05D4
:103FD000109200061092010610920A0610920B062B
:103FE00010920C0610920D0610920E0610920F06FB
:103FF000109244060E94F106B1CB81EB829FF00142
:10400000839FF00D1124EA54FE4F8081813011F618
:104010005FCC81EB829FF001839FF00D1124EA5861
:10402000FE4F4DCC81EB829FF001839FF00D112458
:10403000EA57FE4F44CC81EB829FF001839FF00D45
:104040001124EA56FE4F3BCCCF911F910F91FF9068
:10405000EF90DF90CF90BF90AF90089560E070E058
:10406000CB010E94170C6D3872458105910511F442
:104070000C945C0C80E090E00C94B00C67E572E06E
:1040800080E090E00E94170C70933B0660933A0624
:104090006BE572E080E090E00E94170C1092DA0568
:1040A0001092DB051092DC051092DD056093E605A9
:1040B0007093E7058093E8059093E9051092EA056F
:1040C00081E08093EB0508950F931F93CF93DF93C7
:1040D00060E0809163030E94A73260E080915D03FD
:1040E0000E94A73261E0809165030E94A73261E0DF
:1040F000809161030E94A73261E080915F030E947A
:10410000A732C9E6D3E060E088810E94A73261E06F
:1041100088810E94E03207E613E060E0F8018081C8
:104120000E94A73261E0F80180810E94E03288811C
:1041300041E050E068E673E082500E94A1300E94A6
:10414000AA060E9449080E942E200E949B09DF9126
:10415000CF911F910F910C943E200C94621BAF9253
:10416000BF92CF92DF92EF92FF920F931F9357E08F
:10417000C52E66E0E62E05E024E049E068E084E72D
:1041800096E00E94CF286091630386E696E00E9445
:10419000DC2266E676E083E596E00E94A2238CE2CC
:1041A00091E0A0E0B0E08093140690931506A093F0
:1041B0001606B09317061092100610921106109270
:1041C00012061092130610921C0610921D061092F1
:1041D0001E0610921F06109220061092210688E8F3
:1041E00093E1A0E0B0E08093020690930306A093D1
:1041F0000406B09305061092FE051092FF0510927A
:1042000000061092010610920A0610920B061092F8
:104210000C0610920D0610920E0610920F0688ECF6
:1042200090E0A0E0B0E08093F0059093F105A093BA
:10423000F205B093F3051092EC051092ED05109283
:10424000EE051092EF051092F8051092F905109204
:10425000FA051092FB051092FC051092FD051092D4
:10426000DE051092DF051092E0051092E105109234
:10427000DA051092DB051092DC051092DD05109234
:10428000E6051092E7051092E8051092E9051092F4
:10429000EA051092EB0580E395E7A0E0B0E080939B
:1042A000CC059093CD05A093CE05B093CF05109289
:1042B000C8051092C9051092CA051092CB0510923C
:1042C000D4051092D5051092D6051092D7051092FC
:1042D000D8051092D9051F921F9283E48F9380EF27
:1042E0008F938CE08F938DEC8F9379E2A72E7CE5F2
:1042F000B72E7FE0C72E7EE3D72E1EEAE12E17E40D
:10430000F12E01E811E42AE236E042E256E066E2EC
:1043100076E08FE895E00E94342C0F900F900F907C
:104320000F900F900F9042E256E066E276E084E94B
:1043300093E01F910F91FF90EF90DF90CF90BF908F
:10434000AF900C947730FF920F931F93CF93DF932E
:10435000FC010081C181D281F8948981F02EF09412
:104360008F21898378941DE7115029F182E090E034
:104370000E94383288818023B9F3F8948A818F2192
:104380008A838981802B8983789480EE91E00E94D2
:104390003832F89489818F21898386E490E00E94E5
:1043A00038328881802311E009F010E078948AE99E
:1043B00091E00E943832812FDF91CF911F910F91B0
:1043C000FF9008951F93CF93DF93FC011081C1816B
:1043D000D281912F909560FF12C0F8948A81892331
:1043E0008A838981812B89838AE090E00E94383218
:1043F0008A81812B8A83789487E390E011C0F894B6
:104400008A8189238A838981812B898381E490E051
:104410000E9438328A81812B8A83789485E090E0EB
:10442000DF91CF911F910C9438320F931F93CF934C
:10443000DF93FC011081C181D281F8948981812BA5
:1044400089838A81012F009580238A8383E090E00D
:104450000E9438328981802389838AE090E00E941B
:104460003832C881789485E390E00E9438321C236A
:1044700081E009F480E0DF91CF911F910F910895C1
:10448000CF92DF92EF92FF920F931F93CF93DF9320
:104490001F92CDB7DEB76C01E62E08E010E0FF24D6
:1044A000F39461E09F2D9E2109F460E0C6014983E9
:1044B0000E94E221FF0C01501109498101151105EB
:1044C00081F7411115C0F894D6011196ED91FC9138
:1044D000129791818C918095892381831196ED911A
:1044E000FC91129792818C91809589238283789494
:1044F0000F90DF91CF911F910F91FF90EF90DF9080
:10450000CF900895EF92FF920F931F93CF93DF9375
:104510008C01C8E0D0E0F12CEE24E394C8010E94A5
:1045200015228111FE28EE0C2197C1F78F2DDF9106
:10453000CF911F910F91FF90EF900895CF92DF924E
:10454000FF920F931F93CF93DF931F92CDB7DEB7E8
:104550008C01F62E40E065E579830E944022CF2C45
:104560007981D72E88E0F82EF60161916F0140E045
:10457000C8010E944022FA94B9F70F90DF91CF91C1
:104580001F910F91FF90DF90CF90089540E06CEC69
:104590000C944022FC0113861586148627E030E037
:1045A000DF01A20FB31F13961C922115310519F0DC
:1045B00021503109F5CF08951F93CF93DF93EC017C
:1045C000162F60E0812F0E94A732612F70E0FB015F
:1045D000EC5CF94FE491E883FB01E85BF94FE4916F
:1045E000F0E0EE0FFF1FE45AF94F859194919A8302
:1045F0008983CE01DF91CF911F910C94CA22AF9293
:10460000BF92CF92DF92EF92FF920F931F93CF93BF
:10461000DF931F92CDB7DEB75C01D62EE72EFC01EB
:10462000858581115DC0C5010E94A321811105C04E
:10463000F5011386158614866CC040E060EFC50155
:104640000E94402201E0F12CC12C11E0C5010E9422
:104650001522682FC50169830E9415226981613086
:1046600019F48130B9F433C02F2D30E068131BC02A
:10467000F5018385181730F4E20FF31F838180233F
:1046800049F402C0181731F060E0193058F4F50110
:10469000148708C0F501EF0DF11D8381802B838302
:1046A00061E009C0C12EF501E20FF31F8381902F55
:1046B000909589238383C5010E94E2211F5F000F2B
:1046C00011F4F39401E0F7E0FF1508F0BFCF1134C7
:1046D00038F0F501C386C11009C081E0858706C0A6
:1046E000F50113861586148680E013C0F5018381D9
:1046F0008823B1F3ED2DFE2D80E090E0D501A80FC9
:10470000B91F13962C912193019688309105B1F72A
:1047100081E00F90DF91CF911F910F91FF90EF906B
:10472000DF90CF90BF90AF900895DC0180E06150A2
:1047300038F0ED91E827F0E0E05EFA4F8491F7CF92
:1047400008950895FC0181EA93E2928B818B768330
:1047500065831482108289E0818381E08283838370
:104760000895CF93DF93EB0167E0CE010E9495237C
:1047700091E02F81821390E0892FDF91CF910895EE
:10478000EF92FF920F931F93CF93DF93EC018B0176
:10479000E42E8D819E810E94CA22F12CB8018D8168
:1047A0009E810E94FF22882359F0FE1006C0B801A6
:1047B000CE010E94B123811104C0F394EF1470F76D
:1047C00080E0DF91CF911F910F91FF90EF900895BE
:1047D000EF92FF920F931F93CF93DF9300D0CDB74B
:1047E000DEB77C018A01FC018581968169837A8329
:1047F0000E94A32169817A81F701858196810E94B7
:104800009E2240E06EEBF701858196810E94402256
:10481000F701858196810E948222F8018083F70149
:10482000858196810E948222F8018183F70185812A
:1048300096810E948222F8018283F7018581968108
:104840000E948222F8018383F701858196810E946C
:104850008222F8018483F701858196810E94822259
:10486000F8018583F701858196810E948222F801F3
:104870008683F701858196810E948222F8018783D1
:10488000F701858196810E948222F8018087F701D5
:10489000858196810F900F90DF91CF911F910F919D
:1048A000FF90EF900C94A321CF93DF93EA010E9435
:1048B000E82368E0CE010E94952391E028858213C9
:1048C00090E0892FDF91CF910895EF92FF920F939F
:1048D0001F93CF93DF93EC017B018A018D819E8131
:1048E0000E94A321B7018D819E810E949E2240E0FB
:1048F0006EE48D819E810E94402240E0F801628139
:104900008D819E810E94402240E0F80163818D816B
:104910009E810E944022F7018081803139F040E081
:10492000F80164818D819E810E9440228D819E814B
:104930000E94A321488168E48D819E810E944022CB
:104940008881882331F06AE070E080E090E00E9486
:1049500010328D819E81DF91CF911F910F91FF9039
:10496000EF900C94A321EF92FF921F93CF93DF93CC
:1049700000D0CDB7DEB77C01FC01858196816983CB
:104980007A830E94A32169817A81F70185819681CA
:104990000E949E2240E064EBF701858196810E948F
:1049A0004022F701858196810E941522182FF70178
:1049B000858196810E94A32181E0111180E00F90F2
:1049C0000F90DF91CF911F91FF90EF900895EF929C
:1049D000FF920F931F93CF93DF93CDB7DEB72A9744
:1049E0000FB6F894DEBF0FBECDBF7C018B01242F24
:1049F000AE014F5F5F4F2A870E9454242A85882387
:104A0000D1F0F80180818031C1F02B3041F02C30A1
:104A100021F02A3031F48FE305C08FE703C08FE522
:104A200001C08FE18D83AE014F5F5F4FB801C701B9
:104A30000E94652402C080E001C081E02A960FB682
:104A4000F894DEBF0FBECDBFDF91CF911F910F91C4
:104A5000FF90EF900895CF93DF93CDB7DEB72997FE
:104A60000FB6F894DEBF0FBECDBFFB012081203111
:104A7000D1F0AE014F5F5F4F0E945424882379F03C
:104A80008D818F3351F018F48F3169F008C08F3564
:104A900041F08F3721F48CE007C08AE005C080E048
:104AA00003C08BE001C089E029960FB6F894DEBF01
:104AB0000FBECDBFDF91CF910895EF92FF920F937C
:104AC0001F93CF93DF93CDB7DEB761970FB6F894FE
:104AD000DEBF0FBECDBF8C01FC01858196810E9497
:104AE000CA22F8011482FF24F394BE01665F7F4F4F
:104AF000F801858196810E94FF228823C9F1BE01B9
:104B0000665F7F4FC8010E94B123882371F3F801CB
:104B10008081811108C0BE01665F7F4FC8010E947D
:104B2000B324811122C0AE014F5F5F4FBE01665FAB
:104B30007F4FC8010E94E823F801E180BE01665F53
:104B40007F4FC8010E942B258E1518F4F801818132
:104B500006C0BE01665F7F4FC8010E942B25F80189
:104B6000818384818F5F8483C0CFF801F082DBCFA3
:104B700061960FB6F894DEBF0FBECDBFDF91CF9127
:104B80001F910F91FF90EF900895FC0162830895AB
:104B9000CF93DF93CDB7DEB729970FB6F894DEBF7A
:104BA0000FBECDBFAE014F5F5F4F0E94E82381E093
:104BB0009981911101C080E029960FB6F894DEBF6B
:104BC0000FBECDBFDF91CF910895CF92DF92EF92CC
:104BD000FF920F931F93CF93DF93EC018B01452B33
:104BE000E1F08B818823C9F08881811116C00E9471
:104BF000E1316B017C0160E070E0CE010E94C825CC
:104C000081110BC00E94E1316C197D098E099F0949
:104C10006E3E72408105910570F3F80180818A3003
:104C200049F08B3061F0893079F46EE570E080E016
:104C300090E00EC06CEB70E080E090E009C067E7A8
:104C400071E080E090E004C06EEE72E080E090E001
:104C5000DF91CF911F910F91FF90EF90DF90CF9058
:104C60000C941032CF93DF93EC018D819E810E94D2
:104C7000A3218D819E810E94C622488164E48D819A
:104C80009E810E9440228A81882351F0BE016F5F7D
:104C90007F4F40E050E0CE01DF91CF910C94E525AD
:104CA000DF91CF9108958F929F92AF92BF92CF9252
:104CB000DF92EF92FF921F93CF93DF93FB01EA0104
:104CC000698170E0762F66278881682B8081823227
:104CD000B1F18832A1F1803109F078C01F8175955A
:104CE0006795882777FD8095982F0E944B3720E0A5
:104CF00030E040E85EE30E9447366B017C01612FA3
:104D000070E08E81681B7109882777FD8095982F48
:104D10000E944B374B015C01612F70E080E090E016
:104D20000E9449379B01AC01C501B4010E94B03615
:104D30009B01AC01C701B6010E94483643C08C817B
:104D40008F3381F198F48F3109F040C093E075956D
:104D500067959A95E1F7882777FD8095982F0E94AF
:104D60004B3720E030E040E05FE32AC08F3569F048
:104D70008F3761F5882777FD8095982F0E944B37F4
:104D800020E030E040E85DE31BC07595679588271B
:104D900077FD8095982F0E944B3720E030E040E06F
:104DA0005EE30EC07595679575956795882777FDC5
:104DB0008095982F0E944B3720E030E040E85EE37A
:104DC0000E94FF37562F472F382F292F652F742F1A
:104DD000832F922FDF91CF911F91FF90EF90DF9063
:104DE000CF90BF90AF909F908F900895EF92FF92D9
:104DF0000F931F93CF93DF93CDB7DEB729970FB6ED
:104E0000F894DEBF0FBECDBF8C017B01AE014F5FBA
:104E10005F4F0E945424882341F0AE014F5F5F4FE3
:104E2000B701C8010E94532604C060E070E08EEF15
:104E300092EC29960FB6F894DEBF0FBECDBFDF917E
:104E4000CF911F910F91FF90EF9008950F931F93B3
:104E5000CF93DF93CDB7DEB728970FB6F894DEBFB8
:104E60000FBECDBF8C01462FBE016F5F7F4F0E94EA
:104E7000C023BE016F5F7F4FC8010E94F6262896AF
:104E80000FB6F894DEBF0FBECDBFDF91CF911F915B
:104E90000F910895CF93DF93EC0160E08E810E9423
:104EA000E03281E090E00E94383261E08E810E9421
:104EB000E03281E090E00E94383260E08E810E9412
:104EC000E03284E690E0DF91CF910C943832CF92BB
:104ED000DF92EF92FF920F931F93CF93DF937C01AA
:104EE000C0E0D0E0C62ED12C87010C0F1D1F61E061
:104EF000F80187810E94A732B6010C2E02C0759579
:104F000067950A94E2F76170F80187810E94E032A8
:104F10002196C430D10541F7C701DF91CF911F9190
:104F20000F91FF90EF90DF90CF900C944A27CF9293
:104F3000DF92EF92FF920F931F93CF93DF937C0149
:104F4000C0E0D0E0C62ED12C87010C0F1D1F61E000
:104F5000F80187810E94A732B6010C2E02C0759518
:104F600067950A94E2F76170F80187810E94E03248
:104F70002196C830D10541F7C701DF91CF911F912C
:104F80000F91FF90EF90DF90CF900C944A271F93E2
:104F9000CF93DF93EC01162F642F8C810E94E032B7
:104FA0008D818F3F19F060E00E94E0328F85612F84
:104FB00084FF06C0CE01DF91CF911F910C949727FB
:104FC00070E084E0759567958A95E1F7CE010E94BF
:104FD0006727612FCE01DF91CF911F910C94672736
:104FE00040E00C94C72761E00E94F02780ED97E035
:104FF0000C943832443008F043E0FC012389421716
:1050000010F04FEF420FFC01E40FF11D2489260F31
:105010002068622F0C94F027FC016089262F246001
:10502000208B6C600C94F027CF93DF93EC0142301F
:1050300018F08F8588608F874B8B1C8A80E48D8B5E
:105040006E8B70E0605C7F4F6F8B222329F04130C4
:1050500019F48F8584608F8780E593EC0E94383245
:1050600060E08C810E94E03260E08E810E94E0323C
:105070008D818F3F19F060E00E94E0326F8564FD02
:105080001DC063E0CE010E94672784E991E10E9480
:10509000383263E0CE010E94672784E991E10E94E3
:1050A000383263E0CE010E94672786E990E00E94D3
:1050B000383262E0CE010E94672716C06062CE01DE
:1050C0000E94F02784E991E10E9438326F85606286
:1050D000CE010E94F02786E990E00E9438326F8569
:1050E0006062CE010E94F0276F856062CE010E944F
:1050F000F02784E0888BCE010E940C28CE010E940C
:10510000F32782E0898B66E0CE01DF91CF910C948A
:10511000F0276F927F928F92AF92CF92EF920F9380
:105120001F93CF93DF93CDB7DEB73C01162F842FAB
:105130005D854E853F859889F301848325830683A9
:10514000E782C086A1868286538744873587968703
:1051500061E00E94A732F30185818F3F19F061E081
:105160000E94A73261E0F30186810E94A7321123D9
:1051700019F0F301178603C080E1F301878720E06F
:1051800041E060E1C301DF91CF911F910F91EF905A
:10519000CF90AF908F907F906F900C9414288F9247
:1051A000AF92CF92EF920F93DC0113961C921E9256
:1051B0001297E1E8F3E0ED93FC931F921F921F9288
:1051C0001F928C2CAE2CC02EE22E042F2FEF462FD8
:1051D00061E00E9489280F900F900F900F900F911F
:1051E000EF90CF90AF908F90089541E00E94C72735
:1051F00081E090E008952F923F924F925F926F92DC
:105200007F928F929F92AF92BF92CF92DF92EF9256
:10521000FF920F931F93CF93DF93CDB7DEB72B97FA
:105220000FB6F894DEBF0FBECDBF9B878A87DC0127
:10523000D896BC91B983B11102C01982E2C00E9414
:10524000E1316A837B838C839D83EA85FB8580A122
:1052500091A1A2A1B3A14A815B816C817D81481B90
:10526000590B6A0B7B0B84A595A5A6A5B7A5481776
:1052700059076A077B0708F3028CF38DE02D8080C5
:105280009180A280B380AA85BB855E96ED91FC914A
:105290005F97A501940160817181828193810E9451
:1052A00047362B013C01EA85FB85208931894289FB
:1052B00053890E94FF37AA85BB8594962D913D9115
:1052C0004D915C9197970E9448366B017C01EA856D
:1052D000FB8564A375A386A397A324A835A806A974
:1052E00017A99101A8010E94FB3718161CF4C101EF
:1052F000D80118C0AA85BB85D0968D919D910D903F
:10530000BC91A02D8E839F83A887B9879C01AD0196
:10531000C701B6010E94AC3687FF0AC08E819F810B
:10532000A885B985EA85FB8584A395A3A6A3B7A321
:10533000AA85BB851C962D913D914D915C911F973F
:10534000C301B2010E94FF37EA85FB8524A135A184
:1053500046A157A10E9448366B017C01AA85BB85F6
:1053600098962D913D914D915C919B97C501B4010B
:105370000E944736EA85FB85248935894689578905
:105380000E94FF379B01AC01C701B6010E9447365E
:105390006B017C019101A8010E94FB371816BCF03B
:1053A000AA85BB85D0962C90D097D1963C90D1976A
:1053B000D2960C91D297D3961C919101A801B60177
:1053C000C7010E94AC3687FD02C016018701AA857D
:1053D000BB855C96ED91FC915D97C101D8018083FE
:1053E0009183A283B383EA85FB8580A691A6A2A6BA
:1053F000B3A68A819B81AC81BD8180A391A3A2A326
:10540000B3A389812B960FB6F894DEBF0FBECDBF34
:10541000DF91CF911F910F91FF90EF90DF90CF9090
:10542000BF90AF909F908F907F906F905F904F90C4
:105430003F902F9008952F923F924F925F926F92DC
:105440007F928F929F92AF92BF92CF92DF92EF9214
:10545000FF920F931F93CF93DF9300D000D0CDB76F
:10546000DEB71C012A013B014801590120E030E070
:10547000A901C301B2010E94AC3687FD78C020E0CB
:1054800030E0A901C501B4010E94AC3687FD6FC0B0
:1054900020E030E0A901C701B6010E94AC3687FDCB
:1054A00066C0F10140825182628273828482958259
:1054B000A682B782C086D186E286F38664A575A5EA
:1054C00086A597A50E94493720E030E04AE754E4DA
:1054D0000E94B03669837A838B839C83F101448672
:1054E0005586668677869B01AC01C501B4010E9492
:1054F000FF374B015C01F101608B718B828B938BC9
:1055000029813A814B815C81C701B6010E94B03686
:105510006B017C01F101648B758B868B978B808D81
:10552000918D019721F5A301920160E070E0CB011C
:105530000E944736F1016487758786879787A501A2
:10554000940160E070E0CB010E944736F101608B6E
:10555000718B828B938BA701960160E070E0CB0189
:105560000E944736F101648B758B868B978B0F9069
:105570000F900F900F90DF91CF911F910F91FF909F
:10558000EF90DF90CF90BF90AF909F908F907F90E3
:105590006F905F904F903F902F9008958F929F92C1
:1055A000AF92BF92CF92DF92EF92FF92CF93DF93B1
:1055B000EC0116161706ACF56B01EE24D7FCE0944F
:1055C000FE2CC701B6010E944B374B015C016CA554
:1055D0007DA58EA59FA50E9449379B01AC01C50101
:1055E000B4010E94B0364B015C019B01AC0168899B
:1055F00079898A899B890E94FF37688B798B8A8B8E
:105600009B8BA50194016C897D898E899F890E945D
:10561000B0366C8B7D8B8E8B9F8BCCA6DDA6EEA6D9
:10562000FFA6DF91CF91FF90EF90DF90CF90BF90DA
:10563000AF909F908F9008952F923F924F925F92DC
:105640006F927F928F929F92AF92BF92CF92DF9292
:10565000EF92FF920F931F93CF93DF93EC016A01B8
:105660007B0148015901A9019801C701B6010E94B7
:10567000FB3787FF4EC0C8AAD9AAEAAAFBAA8CAA00
:105680009DAAAEAABFAA88AD882309F442C02C8C7B
:105690003D8CF1014080518062807380A5019401AE
:1056A000C301B2010E94FB37181634F4F101808265
:1056B0009182A282B3820DC0A7019601C301B201FB
:1056C0000E94AC3687FF05C0F101C082D182E28220
:1056D000F3828CA09DA0AEA0BFA0CCA8DDA8EEA8B0
:1056E000FFA8A7019601C501B4010E94FB37181657
:1056F00064F0C8A8D9A8EAA8FBA8A7019601C5012B
:10570000B4010E94AC3687FF04C0CCA2DDA2EEA299
:10571000FFA2DF91CF911F910F91FF90EF90DF904B
:10572000CF90BF90AF909F908F907F906F905F9041
:105730004F903F902F9008958F929F92AF92BF927B
:10574000CF92DF92EF92FF92CF93DF93EC01EC8D3B
:10575000FD8DC080D180E280F380CCA2DDA2EEA2DC
:10576000FFA2EA8DFB8D80819181A281B38188A700
:1057700099A7AAA7BBA78CA89DA8AEA8BFA8A5015A
:105780009401C701B6010E94FB37181664F088A87F
:1057900099A8AAA8BBA8A5019401C701B6010E94B7
:1057A000AC3687FF04C08CA29DA2AEA2BFA2DF913F
:1057B000CF91FF90EF90DF90CF90BF90AF909F90F0
:1057C0008F9008951F93CF93DF93EC0111E0613028
:1057D000710509F010E088AD91E08927181303C026
:1057E000CE010E949C2B18AFDF91CF911F9108959D
:1057F0000F931F93CF93DF93EC018B0188AD882328
:1058000061F1888D998D6817790739F12C853D856F
:105810004E855F8560E070E0CB010E9447366C8763
:105820007D878E879F87288939894A895B8960E0CF
:1058300070E0CB010E944736688B798B8A8B9B8BFB
:105840002C893D894E895F8960E070E0CB010E9420
:1058500047366C8B7D8B8E8B9F8B198F088FDF91DA
:10586000CF911F910F9108954F925F926F927F9207
:105870008F929F92AF92BF92CF92DF92EF92FF9260
:105880000F931F93CF93DF9300D000D0CDB7DEB737
:105890004C0127013801A982BA82CB82DC82FC014B
:1058A000558F448F738F628F378F268F10AE10AA5B
:1058B00011AA12AA13AA80E090E0AFE7B3E484AB88
:1058C00095ABA6ABB7AB84E690E0A0E0B0E084A7D0
:1058D00095A7A6A7B7A76B8D7C8DC4010E94F82B56
:1058E000CF88D88CE98CFA8C09811A812B813C8174
:1058F000B301A201C4010E941B2A0E94E131F401FC
:1059000044A455A466A477A4641975098609970967
:1059100060A371A382A393A30F900F900F900F9099
:10592000DF91CF911F910F91FF90EF90DF90CF907B
:10593000BF90AF909F908F907F906F905F904F90AF
:105940000895FC01108A0895CF92DF92EF92FF92A2
:105950000F931F93CF93DF93EC01FC01E151FE4FB6
:1059600080819181A281B381EC81FD8180839183CB
:10597000A283B3838E010D501E4FFE01E551FE4FF1
:1059800060817181828193819B01AC010E944836C4
:1059900020E030E040E850E40E94FF376B017C01DA
:1059A000FE01ED51FE4FDE01A951BE4F2D913D91FB
:1059B0004D915C9160817181828193810E94473613
:1059C00020ED3FE049E450E40E94FF379B01AC0129
:1059D000C701B6010E94B036F801608371838283EB
:1059E00093830C5F1F4F69897A898B899C89CD8845
:1059F000DE88EF88F88C6C197D098E099F090E945A
:105A0000493720E030E04AE754E40E94B036F8011C
:105A10006083718382839383DF91CF911F910F9174
:105A2000FF90EF90DF90CF9008952F923F924F928A
:105A30005F926F927F928F929F92AF92BF92CF921E
:105A4000DF92EF92FF920F931F93CF93DF93CDB727
:105A5000DEB72F970FB6F894DEBF0FBECDBF9F877E
:105A60008E878C010E511E4FD8011C921C01B1E291
:105A70002B1ABEEF3B0AF101808191810A9774F0E5
:105A8000AE85BF8550968C915097882339F05096FB
:105A90001C925097CD010E94A42C77C20E94E13144
:105AA0006F83788789879A87EE85FF85818D928DB0
:105AB000A38DB48D4F81588569857A85481B590B14
:105AC0006A0B7B0B858D968DAA2797FDA095BA2F23
:105AD000481759076A077B0708F45CC28F819885CD
